:100000000C94F4000C9411010C9411010C94110146
:100010000C9411010C9411010C9411010C94110118
:100020000C9411010C94BC010C9411010C9411015D
:100030000C9411010C9411010C9411010C941101F8
:100040000C9411010C9411010C9411010C941101E8
:100050000C9411010C9411010C9411010C941101D8
:100060000C9411010C9411010C9411010C941101C8
:100070000C9411010C9411010C943D0C0C94110181
:100080000C9411010C9411010C9411015F5F5F5FDE
:100090005F5F5F5F5F5F5F5F5F5F5F5F5F5F5F5F70
:1000A0005F5F5F5F5F5F0A0A000A526F626F746191
:1000B000726D2053746F7077617463682044656D4E
:1000C0006F2050726F6772616D0A0009092020204D
:1000D0002020202020434E5433203A2000092020A5
:1000E000434E5432203A2000434E5431203A2000EF
:1000F00023232323232323232323232323232323D0
:1001000023232323232323232323232323232323BF
:1001100023232323232323232323232323232323AF
:10012000232323232323232323232323230A0A00F4
:10013000466F72206F6C64657220726576697369B0
:100140006F6E7320796F75206E65656420746865C5
:10015000206F6C64206578616D706C652070726FC3
:100160006772616D73210A004552524F523A205412
:100170006869732070726F6772616D20697320699E
:100180006E74656E64656420666F722074686520A5
:100190006E657720526F626F742041524D20763326
:1001A00020504342210A000A0A2323232323232326
:1001B000232323232323232323232323232323230F
:1001C00023232323232323232323232323232323FF
:1001D00023232323232323232323232323232323EF
:1001E0002323232323230A0011241FBECFEFD0E1B2
:1001F000DEBFCDBF11E0A0E0B1E0EEEFFAE102C05A
:1002000005900D92A430B107D9F711E0A4E0B1E058
:1002100001C01D92A035B107E1F70E948F010C9437
:100220007D0D0C9400008091300190913101815B33
:100230009440B8F08BEC90E00E941C0C809104017B
:1002400090E060E142E00E94D70C8AE00E94070C37
:10025000809104018F5F809304011092310110920C
:100260003001089580912E0190912F018152934089
:10027000B0F08DED90E00E941C0C8091050190E0A3
:1002800062E00E94B50C8AE00E94070C8091050193
:100290008F5F8093050110922F0110922E01089517
:1002A00080912C0190912D0181599140B0F088EE00
:1002B00090E00E941C0C8091060190E06AE00E9490
:1002C000B50C8AE00E94070C809106018F5F809335
:1002D000060110922D0110922C01089580912A019F
:1002E00090912B0185369105C8F080910001909185
:1002F0000101019739F40E94AE021092010110929F
:10030000000108C00E94C00281E090E090930101CA
:100310008093000110922B0110922A0108950E94EF
:10032000330B89EA90E00E941C0C8CE890E00E945C
:100330001C0C809129018160809329018091290101
:100340008260809329018091290184608093290132
:100350008091290188608093290180E496E0909340
:100360002D0180932C010E946E010E9450010E9479
:1003700032010E941301F7CF1F920F920FB60F9216
:1003800011248F939F9380913A0190913B010196A4
:1003900090933B0180933A0180913C018F5F809361
:1003A0003C0181508A3008F46AC08091290180FFA5
:1003B00009C080912A0190912B01019690932B0105
:1003C00080932A018091290181FF09C080912C012D
:1003D00090912D01019690932D0180932C01809195
:1003E000290182FF09C080912E0190912F01019671
:1003F00090932F0180932E018091290183FF09C0E2
:100400008091300190913101019690933101809358
:1004100030018091290184FF09C0809132019091BF
:100420003301019690933301809332018091290129
:1004300085FF09C080913401909135010196909318
:100440003501809334018091290186FF09C0809194
:1004500036019091370101969093370180933601D0
:100460008091290187FF09C080913801909139015D
:100470000196909339018093380110923C019F912D
:100480008F910F900FBE0F901F90189510923B0107
:1004900010923A01282F30E080913A0190913B016F
:1004A00082179307C8F308959C010CC010923B017A
:1004B00010923A0180913A0190913B010A97D0F352
:1004C000215030402115310589F70895E5E6F0E027
:1004D0009081907F908390818F70892B8083089585
:1004E000909165009E7F909365002091650090E05B
:1004F000811191E0922B9093650008959091650091
:100500009D7F9093650090916500811182E0892B19
:10051000809365000895909165009B7F909365009E
:1005200090916500811184E0892B80936500089586
:1005300090916500977F909365009091650081117F
:1005400088E0892B809365000895E5E6F0E08081DE
:100550008160808380818D7F80830895E5E6F0E06F
:1005600080818E7F80838081826080830895E5E62C
:10057000F0E0808181608083808182608083089543
:10058000E5E6F0E080818E7F808380818D7F8083AF
:10059000089580910701882311F48AE601C08DE156
:1005A00083BF08958AE483BF089581BF0895809131
:1005B0000701882309F48BC08FE08ABB81E08BBBE5
:1005C00010923B0110923A0180913A0190913B01C7
:1005D0000F97D0F389B3682F70E020E830E040E057
:1005E00050E0C901862397238217930709F4F6C0C8
:1005F0004F5F5F4F4430510519F035952795F1CF86
:1006000082E08BBB10923B0110923A0180913A013B
:1006100090913B010F97D0F389B3682F70E020E8E9
:1006200030E040E050E0C90186239723821793070A
:1006300009F4AFC04F5F5F4F4430510519F0359555
:100640002795F1CF84E08BBB10923B0110923A01C9
:1006500080913A0190913B010F97D0F389B3682FB5
:1006600070E020E830E040E050E0C90186239723A5
:100670008217930709F468C04F5F5F4F44305105FC
:1006800019F035952795F1CF88E08BBB10923B018F
:1006900010923A0180913A0190913B010F97D0F36B
:1006A00089B3682F70E040E850E020E030E0CA01F4
:1006B000862397232F5F3F4F8417950709F49CC02B
:1006C0002430310509F496C055954795F0CF80EF59
:1006D0008ABB80E18BBB10923B0110923A01809162
:1006E0003A0190913B010F97D0F389B3682F70E0E6
:1006F00041E050E020E030E0CA01862397232F5FDD
:100700003F4F8417950709F477C02430310519F05D
:10071000440F551FF1CF80E28BBB10923B0110922A
:100720003A0180913A0190913B010F97D0F389B340
:10073000682F70E021E030E040E050E0C9018623FE
:1007400097238217930721F49A012B5F3F4F54C0E0
:100750004F5F5F4F4430510519F0220F331FEECF2A
:1007600080E48BBB10923B0110923A0180913A01D8
:1007700090913B010F97D0F389B3682F70E021E08F
:1007800030E040E050E0C9018623972382179307A9
:1007900021F49A01275F3F4F2FC04F5F5F4F4430D6
:1007A000510519F0220F331FEECF80E88BBB10925A
:1007B0003B0110923A0180913A0190913B010F97D1
:1007C000D0F389B3682F70E021E030E040E050E0E2
:1007D000C901862397238217930721F49A01235F87
:1007E0003F4F0AC04F5F5F4F4430510519F0220F51
:1007F000331FEECF20E030E0C9010895369B03C0DF
:1008000020E030E01DC0806487B986E886B922E028
:1008100030E00AC010923B0110923A0180913A01F7
:1008200090913B010A97D0F3215030408FEF2F3F3A
:10083000380781F7369A3699FECF16B824B135B10C
:10084000C901089517B886E186B910BC089580647F
:1008500087B986ED86B90895369969C0209102015D
:100860002430B9F1253050F42130D9F0213088F00E
:100870002230F9F0233009F052C023C02630E1F1D4
:10088000263078F1273009F43FC02F3F09F047C0E8
:1008900041C084B195B1909319018093180181E40E
:1008A00027C084B195B190931B0180931A0182E413
:1008B0001FC084B195B190931F0180931E0183E402
:1008C00017C084B195B1909317018093160184E409
:1008D0000FC084B195B1909321018093200185E4EC
:1008E00007C084B195B190931D0180931C0186E4EB
:1008F00087B986ED86B918C084B195B19093260169
:100900008093250187E4F4CF84B195B190932401BD
:100910008093230180E487B986ED86B902C0273031
:1009200018F01092020108952F5F2093020108959C
:100930003699ACC040910201443009F459C04530A9
:1009400050F4413029F1413098F0423089F1433080
:1009500009F094C03DC0463009F46DC0463008F43B
:1009600057C0473009F477C04F3F09F087C081C0B6
:1009700084B195B12091180130911901820F931F14
:1009800096958795909319018093180181E44FC043
:1009900084B195B120911A0130911B01820F931FF0
:1009A0009695879590931B0180931A0182E43FC02E
:1009B00084B195B120911E0130911F01820F931FC8
:1009C0009695879590931F0180931E0183E42FC015
:1009D00084B195B12091160130911701820F931FB8
:1009E00096958795909317018093160184E41FC014
:1009F00084B195B12091200130912101820F931F84
:100A000096958795909321018093200185E40FC0EE
:100A100084B195B120911C0130911D01820F931F6B
:100A20009695879590931D0180931C0186E487B964
:100A300086ED86B928C084B195B120912501309109
:100A40002601820F931F9695879590932601809398
:100A5000250187E4ECCF84B195B120912301309139
:100A60002401820F931F969587959093240180937C
:100A7000230180E487B986ED86B902C0473018F0BB
:100A80001092020108954F5F409302010895282FAC
:100A9000369960C0809102018430C1F1853050F4F4
:100AA0008130E1F0813090F0823001F1833009F043
:100AB0004FC024C08630D1F1863080F18730F1F10B
:100AC0008F3F09F045C0822F80643FC084B195B14B
:100AD000909319018093180180E437C084B195B1D7
:100AE00090931B0180931A0181E42FC084B195B1CA
:100AF00090931F0180931E0182E427C084B195B1B9
:100B0000909317018093160183E41FC084B195B1BF
:100B1000909321018093200184E417C084B195B1A2
:100B200090931D0180931C0185E40FC084B195B1A1
:100B3000909326018093250186E407C084B195B186
:100B4000909324018093230187E487B986ED86B9C9
:100B5000209302010895CF93DF93EC0110923901A5
:100B6000109238018091290180688093290102C088
:100B70000E942C0480913801909139018C179D07B7
:100B8000B8F3809129018F7780932901DF91CF916C
:100B90000895CF93DF93EC01109239011092380140
:100BA0008091290180688093290102C00E949804E5
:100BB00080913801909139018C179D07B8F380918D
:100BC00029018F7780932901DF91CF910895A0E0CB
:100BD000B0E0BC01CD0120E533EC40E050E00E94E4
:100BE000190D9B01AC01BEE05695479537952795A9
:100BF000BA95D1F7C9010895E199FECF90E09FBB66
:100C00008EBB6DBBE29AE19A0895E199FECF90E028
:100C10009FBB8EBBE09A8DB3089582E060910A017C
:100C20000E94FC0560910B0183E00E94FC0584E0BA
:100C300060910C010E94FC0560910D0185E00E940D
:100C4000FC0586E060910E010E94FC0560910F0199
:100C500087E00E94FC0588E0609110010E94FC057D
:100C60006091110189E00E94FC058AE06091120107
:100C70000E94FC05609113018BE00E94FC058CE052
:100C8000609114010E94FC05609115018DE00E94A5
:100C9000FC05089580910701882321F0809165006B
:100CA000806103C080916500877F8093650008950F
:100CB00080910701882321F0809165008F7E03C019
:100CC00080916500886080936500089580910A0195
:100CD00090910B019BBD8ABD24E630E00AC01092C2
:100CE0003B0110923A0180913A0190913B010A97A1
:100CF000D0F3215030408FEF2F3F380781F780919C
:100D00000C0190910D0199BD88BD24E630E00AC028
:100D100010923B0110923A0180913A0190913B016F
:100D20000A97D0F3215030408FEF2F3F380781F7DB
:100D300080910E0190910F0190937900809378003B
:100D400022E330E00AC010923B0110923A018091F8
:100D50003A0190913B010A97D0F3215030408FEF38
:100D60002F3F380781F780911001909111019093E6
:100D700087008093860022E330E00AC010923B0196
:100D800010923A0180913A0190913B010A97D0F379
:100D9000215030408FEF2F3F380781F780911201AB
:100DA00090911301909385008093840022E330E0BA
:100DB0000AC010923B0110923A0180913A01909141
:100DC0003B010A97D0F3215030408FEF2F3F380777
:100DD00081F7809114019091150190938300809385
:100DE000820022E330E00AC010923B0110923A01E7
:100DF00080913A0190913B010A97D0F32150304005
:100E00008FEF2F3F380781F70895E199FECF82E0F9
:100E100090E09FBB8EBBE09A3DB3E199FECF83E0AB
:100E200090E09FBB8EBBE09A2DB3922F80E0232FE2
:100E300030E0822B932B90930B0180930A01E19970
:100E4000FECF84E090E09FBB8EBBE09A3DB3E1997A
:100E5000FECF85E090E09FBB8EBBE09A2DB3922F32
:100E600080E0232F30E0822B932B90930D01809311
:100E70000C01E199FECF86E090E09FBB8EBBE09A2B
:100E80003DB3E199FECF87E090E09FBB8EBBE09A37
:100E90002DB3922F80E0232F30E0822B932B909361
:100EA0000F0180930E01E199FECF88E090E09FBB97
:100EB0008EBBE09A3DB3E199FECF89E090E09FBB05
:100EC0008EBBE09A2DB3922F80E0232F30E0822B4F
:100ED000932B9093110180931001E199FECF8AE04A
:100EE00090E09FBB8EBBE09A3DB3E199FECF8BE0D3
:100EF00090E09FBB8EBBE09A2DB3922F80E0232F12
:100F000030E0822B932B9093130180931201E1998F
:100F1000FECF8CE090E09FBB8EBBE09A3DB3E199A1
:100F2000FECF8DE090E09FBB8EBBE09A2DB3922F59
:100F300080E0232F30E0822B932B90931501809338
:100F4000140180910A0190910B018F5F9F4F31F442
:100F50008CED95E090930B0180930A0180910C0138
:100F600090910D018F5F9F4F31F48CED95E0909340
:100F70000D0180930C0180910E0190910F018F5F04
:100F80009F4F31F48CED95E090930F0180930E010B
:100F900080911001909111018F5F9F4F31F48CED82
:100FA00095E090931101809310018091120190912E
:100FB00013018F5F9F4F31F48CED95E090931301F7
:100FC0008093120180911401909115018F5F9F4FC2
:100FD00031F48CED95E090931501809314010E94FB
:100FE0006606089588EE93E09BBD8ABD24E630E056
:100FF0000AC010923B0110923A0180913A019091FF
:101000003B010A97D0F3215030408FEF2F3F380734
:1010100081F788EE93E099BD88BD24E630E00AC0F0
:1010200010923B0110923A0180913A0190913B015C
:101030000A97D0F3215030408FEF2F3F380781F7C8
:1010400088EE93E0909379008093780022E330E07B
:101050000AC010923B0110923A0180913A0190919E
:101060003B010A97D0F3215030408FEF2F3F3807D4
:1010700081F788EE93E0909387008093860022E3C7
:1010800030E00AC010923B0110923A0180913A017F
:1010900090913B010A97D0F3215030408FEF2F3FC2
:1010A000380781F788EE93E0909385008093840061
:1010B00022E330E00AC010923B0110923A01809185
:1010C0003A0190913B010A97D0F3215030408FEFC5
:1010D0002F3F380781F788EE93E090938300809349
:1010E000820022E330E00AC010923B0110923A01E4
:1010F00080913A0190913B010A97D0F32150304002
:101100008FEF2F3F380781F708951BBC1ABC19BC1D
:1011100018BC1092790010927800109287001092FB
:101120008600109285001092840010928300109225
:10113000820008950E9485080E944A062AEF30E046
:101140000AC010923B0110923A0180913A019091AD
:101150003B010A97D0F3215030408FEF2F3F3807E3
:1011600081F780910A0190910B019BBD8ABD24E615
:1011700030E00AC010923B0110923A0180913A018E
:1011800090913B010A97D0F3215030408FEF2F3FD1
:10119000380781F780910C0190910D0199BD88BDB0
:1011A00024E630E00AC010923B0110923A0180918F
:1011B0003A0190913B010A97D0F3215030408FEFD4
:1011C0002F3F380781F780910E0190910F01909386
:1011D00079008093780022E330E00AC010923B014E
:1011E00010923A0180913A0190913B010A97D0F315
:1011F000215030408FEF2F3F380781F78091100149
:1012000090911101909387008093860022E330E053
:101210000AC010923B0110923A0180913A019091DC
:101220003B010A97D0F3215030408FEF2F3F380712
:1012300081F7809112019091130190938500809322
:10124000840022E330E00AC010923B0110923A0180
:1012500080913A0190913B010A97D0F321503040A0
:101260008FEF2F3F380781F780911401909115017E
:10127000909383008093820022E330E00AC01092B2
:101280003B0110923A0180913A0190913B010A97FB
:10129000D0F3215030408FEF2F3F380781F708956A
:1012A0000E9485080E944A062AEF30E00AC0109288
:1012B0003B0110923A0180913A0190913B010A97CB
:1012C000D0F3215030408FEF2F3F380781F780E473
:1012D00096E09BBD8ABD24E630E00AC010923B0137
:1012E00010923A0180913A0190913B010A97D0F314
:1012F000215030408FEF2F3F380781F78CED95E07C
:1013000099BD88BD24E630E00AC010923B011092DE
:101310003A0180913A0190913B010A97D0F3215014
:1013200030408FEF2F3F380781F78CED95E0909399
:1013300079008093780022E330E00AC010923B01EC
:1013400010923A0180913A0190913B010A97D0F3B3
:10135000215030408FEF2F3F380781F78CED95E01B
:10136000909387008093860022E330E00AC01092B9
:101370003B0110923A0180913A0190913B010A970A
:10138000D0F3215030408FEF2F3F380781F78CED9D
:1013900095E0909385008093840022E330E00AC0BA
:1013A00010923B0110923A0180913A0190913B01D9
:1013B0000A97D0F3215030408FEF2F3F380781F745
:1013C0008CED95E0909383008093820022E330E0DF
:1013D0000AC010923B0110923A0180913A0190911B
:1013E0003B010A97D0F3215030408FEF2F3F380751
:1013F00081F70895833009F1843030F4813059F059
:10140000823009F045C010C0853069F1853000F1A7
:101410008630F1F533C080910A0190910B01860F5F
:10142000971F9BBD8ABD089580910C0190910D017D
:10143000860F971F99BD88BD089580910E019091E8
:101440000F01860F971F909379008093780008957D
:101450008091100190911101860F971F9093870042
:101460008093860008958091120190911301860F58
:10147000971F9093850080938400089580911401B4
:1014800090911501860F971F90938300809382009F
:101490000895CF92DF92EF92FF920F931F93CF9315
:1014A000DF93F82E8B016A0123E0821711F12817D0
:1014B00038F081E0F81679F022E0F21649F412C013
:1014C00085E0F81641F1F816E8F026E0F21661F131
:1014D000CCE8DAE033C0CAB5DBB580910A0190915F
:1014E0000B012AC0C8B5D9B580910C0190910D01AE
:1014F00023C0C0917800D091790080910E01909125
:101500000F011AC0C0918600D09187008091100110
:101510009091110111C0C0918400D09185008091FB
:1015200012019091130108C0C0918200D0918300F4
:101530008091140190911501C81BD90B0C171D0740
:101540000CF05BC081E0F81611F0EE2408C0EE2428
:10155000CE01801B910BC29714F0EE24E3942197E7
:101560008F2DBE010E94FA091092390110923801A4
:101570008091290180688093290102C00E942C0477
:1015800080913801909139018C159D05B8F38091B7
:1015900029018F77809329010C171D0704F3E801B7
:1015A000EE2029F54BC02196CE018D509E4F875ECF
:1015B000934020F48F2DBE010E94FA091092390148
:1015C000109238018091290180688093290102C01E
:1015D0000E942C0480913801909139018C159D0551
:1015E000B8F3809129018F778093290102C00F5CA5
:1015F0001F4F0C171D07BCF621C0C017D107F4F40C
:1016000021968F2DBE010E94FA0910923901109285
:1016100038018091290180688093290102C00E94CD
:101620002C0480913801909139018C159D05B8F3F7
:10163000809129018F7780932901DFCFDF91CF91AE
:101640001F910F91FF90EF90DF90CF900895A79892
:10165000AF9A00009F9B03C010920701089581E09C
:10166000809307010895F8940E94270B8091070149
:10167000882309F479C01BBA8FE088BB15BA12BA67
:1016800013B810926200109265008ABB80EF87BB8E
:101690008CEF84BB8BE081BB8AEF82B91092610032
:1016A0008FE1809364000E94580680EC87B984E241
:1016B00086B910928E008AE483BF8FEF81BF8AE0E3
:1016C00085BD8CEC83BD38EA3FBD22E12EBD80E2B2
:1016D0009EE497BD86BD1DBC1CBC30938B0020933F
:1016E0008A0090938100809380001092890010926C
:1016F00088001092980089E18093990010929B00D5
:1017000086E080939D0088E980939A0087B780687F
:1017100087BF78940E94050780916500816080935F
:101720006500809165008D7F8093650028EE33E031
:101730000AC010923B0110923A0180913A019091B7
:101740003B010A97D0F3215030408FEF2F3F3807ED
:1017500081F7809165008E7F8093650080916500A0
:1017600082608093650008951BBA8FE088BB15BA2C
:1017700012BA13B8109262001092650080EF8ABB13
:1017800087BB8CEF84BB8BE081BB8AEF82B9109260
:1017900061008FE18093640087EA91E00E941C0C55
:1017A00088E691E00E941C0C80E391E00E941C0CF2
:1017B00080EF90E00E941C0C20ED37E049E951E0F9
:1017C00005C0CA010197F1F72150304021153105BC
:1017D000C1F780916500816080936500809165000C
:1017E0008D7F8093650088EE93E0FA013197F1F7E1
:1017F0000197D9F7809165008E7F80936500809175
:1018000065008D7F8093650020ED37E0DACF982F5B
:1018100080919B0085FFFCCF90939C000895FC0174
:1018200007C080919B0085FFFCCF319690939C0070
:1018300090819923B1F708959C0106C080919B0087
:1018400085FFFCCF90939C00F9012F5F3F4F94914F
:101850009923A1F70895FC01E40FF11D08C08091C0
:101860009B0085FFFCCF319690939C006150908146
:10187000992311F0662399F708951F920F920FB6DE
:101880000F9211248F939F93EF93FF93DF93CF9346
:101890000F92CDB7DEB780919C00898380913D0186
:1018A000882391F490913F01E92FF0E08981E05C79
:1018B000FE4F80839F5F90933F0180913E01981778
:1018C00018F082E080933D010F90CF91DF91FF915E
:1018D000EF919F918F910F900FBE0F901F901895D1
:1018E00010923F0180933E0110923D010895809136
:1018F0003D018823E1F30895AC0120E00AC0E22F06
:10190000F0E0DF01A05CBE4F8C91E40FF51F8083F7
:101910002F5F80913E01281790F381E080933D0175
:10192000089510923E0181E080933D010895109248
:101930003F0180933E0110923D0180913D0188233B
:10194000E1F390E00AC0E92FF0E0DF01A05CBE4FB8
:101950008C91E60FF71F80839F5F80913E0198175F
:1019600090F381E080933D0108950F931F93DF93DF
:10197000CF93CDB7DEB761970FB6F894DEBF0FBE39
:10198000CDBF462F8E010F5F1F4FB80150E00E9460
:10199000380DC8010E940F0C61960FB6F894DEBF97
:1019A0000FBECDBFCF91DF911F910F910895FF9290
:1019B0000F931F93DF93CF93CDB7DEB761970FB629
:1019C000F894DEBF0FBECDBF262FF42E8E010F5F21
:1019D0001F4FB801422F50E00E94380DF8010190CE
:1019E0000020E9F73197E01BF10B4F2D4E1B141629
:1019F0007CF490E3415080919B0085FFFCCF909355
:101A00009C004423B9F7CE0101960E940F0C05C03B
:101A10004195C8016F2D0E942B0C61960FB6F8946A
:101A2000DEBF0FBECDBFCF91DF911F910F91FF9011
:101A30000895629FD001739FF001829FE00DF11D18
:101A4000649FE00DF11D929FF00D839FF00D749F38
:101A5000F00D659FF00D9927729FB00DE11DF91FE4
:101A6000639FB00DE11DF91FBD01CF011124089541
:101A7000FB019F01E8944230C4F04532B4F44A308F
:101A800029F497FB1EF4909581959F4F642F77273B
:101A90000E94690D805D8A330CF0895D8193CB01D2
:101AA0000097A1F716F45DE251931082C9010C94DE
:101AB000590DDC01FC01672F71917723E1F7329713
:101AC00004C07C916D9370836291AE17BF07C8F319
:101AD0000895AA1BBB1B51E107C0AA1FBB1FA61775
:101AE000B70710F0A61BB70B881F991F5A95A9F7C7
:0E1AF00080959095BC01CD010895F894FFCF2C
:041AFE000100FF00E4
:00000001FF
