:100000000C94EB010C9408020C9408020C94080266
:100010000C9408020C9408020C9408020C94080238
:100020000C9408020C9423030C9408020C9408020C
:100030000C9408020C9408020C9408020C94080218
:100040000C9408020C9408020C9408020C94080208
:100050000C9408020C9408020C9408020C940802F8
:100060000C9408020C9408020C9408020C940802E8
:100070000C9408020C9408020C94A40D0C94080231
:100080000C9408020C9408020C9408020A48656C4F
:100090006C6F21204D79206E616D6520697320524F
:1000A0006F626F7441726D790A00756E74696C20AD
:1000B000736F6D656F6E6520726573657473206D07
:1000C00065210A004F4B20676F6F642062796521BC
:1000D00020492077696C6C2077616974200A004799
:1000E0007265617421204865726520776520676FAD
:1000F00020616761696E2E2E2E0A0057656C6C2C8C
:1001000020696620796F7520646F6E27742077618F
:100110006E7420746861742E2E2E203A2A28200ACC
:10012000004F68202E2E2E2069742773206F76656D
:1001300072210A004E6F7720796F752067657420F1
:1001400061206C656420616E642062656570657213
:100150002073686F77210A004F4B207468656E2EFC
:100160002E2E206C65742773206D6F7665206F6E60
:10017000210A000A0A546861742773206974210AED
:100180000A004865726520776520676F210A0022A2
:10019000202120477565737320776861743F204E76
:1001A0006F626F64792063617265732E2E2E203B1F
:1001B0002D290A00536F20796F75722061676520C1
:1001C00069733A2022002220210A0048656C6C6F76
:1001D000202200446F20796F752077616E7420743F
:1001E0006F20646F20616C6C207468697320616794
:1001F00061696E3F2028227922206F7220226E22B0
:10020000290A00446F20796F752077616E7420741D
:100210006F2073656520626C696E6B696E67204C38
:1002200045447320616E642068656172207468655E
:100230002062656570657220736F756E643F20285B
:10024000227922206F7220226E22290A00446F2018
:10025000796F752077616E7420746F2073656520E7
:10026000736F6D652054657874206F757470757444
:100270003F2028227922206F7220226E22290A0034
:10028000486F77206F6C642061726520796F753FCD
:100290002028456E74657220322063686172616344
:1002A0007465727320706C65617365290A00576804
:1002B0006174277320796F7572206E616D653F20C0
:1002C00028456E74657220382063686172616374BA
:1002D00065727320706C65617365290A002323239E
:1002E00023232323232323232323232323232323DE
:1002F00023232323232323232323232323232323CE
:1003000023232323232323232323232323232323BD
:10031000232323232323232323230A0A00466F7244
:10032000206F6C646572207265766973696F6E7395
:1003300020796F75206E65656420746865206F6C28
:1003400064206578616D706C652070726F67726192
:100350006D73210A004552524F523A205468697316
:100360002070726F6772616D20697320696E7465A9
:100370006E64656420666F7220746865206E6577B0
:1003800020526F626F742041524D207633205043CB
:1003900042210A000A0A232323232323232323237E
:1003A000232323232323232323232323232323231D
:1003B000232323232323232323232323232323230D
:1003C00023232323232323232323232323232323FD
:1003D0002323230A000011241FBECFEFD0E1DEBF8C
:1003E000CDBF11E0A0E0B1E0ECECFDE102C0059072
:1003F0000D92A034B107D9F711E0A0E4B1E001C03B
:100400001D92AA38B107E1F70E9411030C94E40E83
:100410000C94000086E990E00E943C040E943004A5
:100420000E940C0484EF91E00E94BB0388EC90E0F2
:100430000E943C040E94150484EF91E00E94BB03DB
:100440008FEF90E00E943C040E941E0484EF91E034
:100450000E94BB030E9427040E94390408950F9351
:100460001F9300E080E091E06AE0402F0E94920D2F
:1004700080E20E946E0D10E004C083E20E946E0DC7
:100480001F5F1017D0F388EC90E00E94BB038AE056
:100490000E946E0D0F5F053329F71F910F9108958C
:1004A000CF92DF92FF920F931F93DF93CF93CDB73D
:1004B000DEB7CDB6DEB6809151018230D1F0833007
:1004C0002CF4882341F08130F1F40CC08330A1F08A
:1004D0008430C9F414C08EEA92E00E94830D98E043
:1004E000F92E13C080E892E00E94830D82E0F82E7E
:1004F0000CC08DE492E005C083E092E002C083ED81
:1005000091E00E94830DFF24F3948DB79EB78F195D
:1005100091090FB6F8949EBF0FBE8DBF0DB71EB7E1
:100520000F5F1F4F8F2D0E94D70D0E94DE0DC80157
:100530000E94E30D80915101823031F1833034F417
:10054000882351F0813009F05AC012C0833071F114
:10055000843009F054C03EC08BEC91E00E94830DC2
:10056000C8016F2D40E00E94920D86EC91E018C00A
:1005700084EB91E00E94830DC8016F2D40E00E9442
:10058000920D8FE891E00CC0F8018081893759F411
:1005900082E891E00E94830D0E942F0283E791E0A0
:1005A0000E94830D2CC088E591E0FACFF80180818C
:1005B000893769F484E391E00E94830D10E00E9482
:1005C0000A021F5F1A30D9F781E291E0E9CF8BEF81
:1005D00090E0E6CFF8018081893731F48FED90E02B
:1005E0000E94830D8FEF09C084EC90E00E94830D80
:1005F0008AEA90E00E94830D8EEF809351018091F2
:1006000051018F5F809351010FB6F894DEBE0FBE8B
:10061000CDBECF91DF911F910F91FF90DF90CF90D2
:100620000895109251010E949A0C0E940A028CE8CF
:1006300090E00E94830D809151018F3F19F00E943C
:100640005002F9CFFFCF1F920F920FB60F921124D5
:100650008F939F938091740190917501019690936F
:10066000750180937401809176018F5F809376018C
:1006700081508A3008F46AC08091630180FF09C00C
:10068000809164019091650101969093650180933A
:1006900064018091630181FF09C08091660190919E
:1006A00067010196909367018093660180916301D1
:1006B00082FF09C080916801909169010196909331
:1006C0006901809368018091630183FF09C0809173
:1006D0006A0190916B01019690936B0180936A017E
:1006E0008091630184FF09C080916C0190916D013C
:1006F000019690936D0180936C018091630185FF59
:1007000009C080916E0190916F01019690936F01E5
:1007100080936E018091630186FF09C08091700112
:100720009091710101969093710180937001809175
:10073000630187FF09C08091720190917301019656
:100740009093730180937201109276019F918F9123
:100750000F900FBE0F901F90189510927501109278
:100760007401282F30E080917401909175018217F7
:100770009307C8F308959C010CC010927501109264
:10078000740180917401909175010A97D0F3215002
:1007900030402115310589F70895E5E6F0E09081B4
:1007A000907F908390818F70892B808308959091A2
:1007B00065009E7F909365002091650090E0811117
:1007C00091E0922B909365000895909165009D7F34
:1007D0009093650090916500811182E0892B809350
:1007E00065000895909165009B7F909365009091BE
:1007F0006500811184E0892B8093650008959091B4
:100800006500977F9093650090916500811188E065
:10081000892B809365000895E5E6F0E08081816092
:10082000808380818D7F80830895E5E6F0E080817C
:100830008E7F80838081826080830895E5E6F0E08A
:100840008081816080838081826080830895E5E675
:10085000F0E080818E7F808380818D7F808308950A
:1008600080914001882311F48AE601C08DE183BFA5
:1008700008958AE483BF089581BF0895809140015F
:10088000882309F48BC08FE08ABB81E08BBB109278
:1008900075011092740180917401909175010F9708
:1008A000D0F389B3682F70E020E830E040E050E0FA
:1008B000C901862397238217930709F4F6C04F5F77
:1008C0005F4F4430510519F035952795F1CF82E0FF
:1008D0008BBB1092750110927401809174019091FC
:1008E00075010F97D0F389B3682F70E020E830E0EE
:1008F00040E050E0C901862397238217930709F44B
:10090000AFC04F5F5F4F4430510519F035952795C3
:10091000F1CF84E08BBB109275011092740180912D
:100920007401909175010F97D0F389B3682F70E02F
:1009300020E830E040E050E0C90186239723821789
:10094000930709F468C04F5F5F4F4430510519F0B9
:1009500035952795F1CF88E08BBB109275011092E9
:10096000740180917401909175010F97D0F389B350
:10097000682F70E040E850E020E030E0CA018623B4
:1009800097232F5F3F4F8417950709F49CC02430AD
:10099000310509F496C055954795F0CF80EF8ABB95
:1009A00080E18BBB109275011092740180917401EB
:1009B000909175010F97D0F389B3682F70E041E0F3
:1009C00050E020E030E0CA01862397232F5F3F4F9D
:1009D0008417950709F477C02430310519F0440FC6
:1009E000551FF1CF80E28BBB1092750110927401FC
:1009F00080917401909175010F97D0F389B3682F9E
:100A000070E021E030E040E050E0C9018623972308
:100A10008217930721F49A012B5F3F4F54C04F5F19
:100A20005F4F4430510519F0220F331FEECF80E4A1
:100A30008BBB10927501109274018091740190919A
:100A400075010F97D0F389B3682F70E021E030E093
:100A500040E050E0C901862397238217930721F4D1
:100A60009A01275F3F4F2FC04F5F5F4F44305105C2
:100A700019F0220F331FEECF80E88BBB1092750167
:100A80001092740180917401909175010F97D0F3C9
:100A900089B3682F70E021E030E040E050E0C90108
:100AA000862397238217930721F49A01235F3F4FF0
:100AB0000AC04F5F5F4F4430510519F0220F331FBA
:100AC000EECF20E030E0C9010895369B03C020E05E
:100AD00030E01DC0806487B986E886B922E030E046
:100AE0000AC0109275011092740180917401909166
:100AF00075010A97D0F3215030408FEF2F3F380710
:100B000081F7369A3699FECF16B824B135B1C901AE
:100B1000089517B886E186B910BC0895806487B936
:100B200086ED86B90895369969C020913F01243039
:100B3000B9F1253050F42130D9F0213088F022303D
:100B4000F9F0233009F052C023C02630E1F12630FD
:100B500078F1273009F43FC02F3F09F047C041C06A
:100B600084B195B1909353018093520181E427C0E1
:100B700084B195B1909355018093540182E41FC0D4
:100B800084B195B1909359018093580183E417C0C3
:100B900084B195B19093500180934F0184E40FC0CC
:100BA00084B195B190935B0180935A0185E407C0AD
:100BB00084B195B1909357018093560186E487B92B
:100BC00086ED86B918C084B195B190936001809389
:100BD0005F0187E4F4CF84B195B190935E01809377
:100BE0005D0180E487B986ED86B902C0273018F030
:100BF00010923F0108952F5F20933F010895369989
:100C0000ACC040913F01443009F459C0453050F424
:100C1000413029F1413098F0423089F1433009F0F8
:100C200094C03DC0463009F46DC0463008F457C04A
:100C3000473009F477C04F3F09F087C081C084B1C5
:100C400095B12091520130915301820F931F9695D7
:100C50008795909353018093520181E44FC084B1F2
:100C600095B12091540130915501820F931F9695B3
:100C70008795909355018093540182E43FC084B1DD
:100C800095B12091580130915901820F931F96958B
:100C90008795909359018093580183E42FC084B1C4
:100CA00095B120914F0130915001820F931F96957D
:100CB00087959093500180934F0184E41FC084B1C5
:100CC00095B120915A0130915B01820F931F969547
:100CD000879590935B0180935A0185E40FC084B19E
:100CE00095B12091560130915701820F931F96952F
:100CF0008795909357018093560186E487B986EDD6
:100D000086B928C084B195B120915F01309160010E
:100D1000820F931F969587959093600180935F0152
:100D200087E4ECCF84B195B120915D0130915E01F3
:100D3000820F931F9695879590935E0180935D0136
:100D400080E487B986ED86B902C0473018F010926A
:100D50003F0108954F5F40933F010895282F369932
:100D600060C080913F018430C1F1853050F4813002
:100D7000E1F0813090F0823001F1833009F04FC012
:100D800024C08630D1F1863080F18730F1F18F3F79
:100D900009F045C0822F80643FC084B195B1909323
:100DA00053018093520180E437C084B195B1909390
:100DB00055018093540181E42FC084B195B1909383
:100DC00059018093580182E427C084B195B1909372
:100DD000500180934F0183E41FC084B195B190937B
:100DE0005B0180935A0184E417C084B195B190935C
:100DF00057018093560185E40FC084B195B190935B
:100E0000600180935F0186E407C084B195B190933F
:100E10005E0180935D0187E487B986ED86B92093F2
:100E20003F010895CF93DF93EC011092730110926C
:100E300072018091630180688093630102C00E9407
:100E4000930580917201909173018C179D07B8F3FF
:100E5000809163018F7780936301DF91CF91089533
:100E6000CF93DF93EC011092730110927201809185
:100E7000630180688093630102C00E94FF05809136
:100E80007201909173018C179D07B8F380916301F3
:100E90008F7780936301DF91CF910895A0E0B0E058
:100EA000BC01CD0120E533EC40E050E00E94800E13
:100EB0009B01AC01BEE05695479537952795BA95AD
:100EC000D1F7C9010895E199FECF90E09FBB8EBB99
:100ED0006DBBE29AE19A0895E199FECF90E09FBB45
:100EE0008EBBE09A8DB3089582E0609143010E9429
:100EF00063076091440183E00E94630784E060918E
:100F000045010E9463076091460185E00E946307E6
:100F100086E0609147010E9463076091480187E085
:100F20000E94630788E0609149010E946307609115
:100F30004A0189E00E9463078AE060914B010E94A8
:100F4000630760914C018BE00E9463078CE0609125
:100F50004D010E94630760914E018DE00E9463077E
:100F6000089580914001882321F08091650080617F
:100F700003C080916500877F80936500089580910C
:100F80004001882321F0809165008F7E03C080910D
:100F90006500886080936500089580914301909179
:100FA00044019BBD8ABD24E630E00AC01092750161
:100FB0001092740180917401909175010A97D0F399
:100FC000215030408FEF2F3F380781F78091450146
:100FD0009091460199BD88BD24E630E00AC0109288
:100FE00075011092740180917401909175010A97B6
:100FF000D0F3215030408FEF2F3F380781F7809199
:10100000470190914801909379008093780022E302
:1010100030E00AC010927501109274018091740141
:10102000909175010A97D0F3215030408FEF2F3FF8
:10103000380781F78091490190914A019093870088
:101040008093860022E330E00AC01092750110926E
:10105000740180917401909175010A97D0F3215029
:1010600030408FEF2F3F380781F780914B019091EF
:101070004C01909385008093840022E330E00AC005
:101080001092750110927401809174019091750114
:101090000A97D0F3215030408FEF2F3F380781F768
:1010A00080914D0190914E01909383008093820036
:1010B00022E330E00AC01092750110927401809111
:1010C0007401909175010A97D0F3215030408FEF51
:1010D0002F3F380781F70895E199FECF82E090E035
:1010E0009FBB8EBBE09A3DB3E199FECF83E090E0D9
:1010F0009FBB8EBBE09A2DB3922F80E0232F30E070
:10110000822B932B9093440180934301E199FECF6E
:1011100084E090E09FBB8EBBE09A3DB3E199FECFA7
:1011200085E090E09FBB8EBBE09A2DB3922F80E0CC
:10113000232F30E0822B932B90934601809345011F
:10114000E199FECF86E090E09FBB8EBBE09A3DB375
:10115000E199FECF87E090E09FBB8EBBE09A2DB374
:10116000922F80E0232F30E0822B932B9093480125
:1011700080934701E199FECF88E090E09FBB8EBB52
:10118000E09A3DB3E199FECF89E090E09FBB8EBB32
:10119000E09A2DB3922F80E0232F30E0822B932B07
:1011A00090934A0180934901E199FECF8AE090E053
:1011B0009FBB8EBBE09A3DB3E199FECF8BE090E000
:1011C0009FBB8EBBE09A2DB3922F80E0232F30E09F
:1011D000822B932B90934C0180934B01E199FECF8E
:1011E0008CE090E09FBB8EBBE09A3DB3E199FECFCF
:1011F0008DE090E09FBB8EBBE09A2DB3922F80E0F4
:10120000232F30E0822B932B90934E0180934D013E
:1012100080914301909144018F5F9F4F31F48CED99
:1012200095E0909344018093430180914501909112
:1012300046018F5F9F4F31F48CED95E0909346010E
:101240008093450180914701909148018F5F9F4FA6
:1012500031F48CED95E090934801809347018091A3
:10126000490190914A018F5F9F4F31F48CED95E0D9
:1012700090934A018093490180914B0190914C01D8
:101280008F5F9F4F31F48CED95E090934C018093EC
:101290004B0180914D0190914E018F5F9F4F31F432
:1012A0008CED95E090934E0180934D010E94CD0707
:1012B000089588EE93E09BBD8ABD24E630E00AC025
:1012C00010927501109274018091740190917501D2
:1012D0000A97D0F3215030408FEF2F3F380781F726
:1012E00088EE93E099BD88BD24E630E00AC01092F4
:1012F00075011092740180917401909175010A97A3
:10130000D0F3215030408FEF2F3F380781F788EE20
:1013100093E0909379008093780022E330E00AC054
:101320001092750110927401809174019091750171
:101330000A97D0F3215030408FEF2F3F380781F7C5
:1013400088EE93E0909387008093860022E330E05C
:101350000AC01092750110927401809174019091ED
:1013600075010A97D0F3215030408FEF2F3F380797
:1013700081F788EE93E0909385008093840022E3C8
:1013800030E00AC0109275011092740180917401CE
:10139000909175010A97D0F3215030408FEF2F3F85
:1013A000380781F788EE93E0909383008093820062
:1013B00022E330E00AC0109275011092740180910E
:1013C0007401909175010A97D0F3215030408FEF4E
:1013D0002F3F380781F708951BBC1ABC19BC18BCF5
:1013E0001092790010927800109287001092860077
:1013F0001092850010928400109283001092820057
:1014000008950E94EC090E94B1072AEF30E00AC05B
:101410001092750110927401809174019091750180
:101420000A97D0F3215030408FEF2F3F380781F7D4
:1014300080914301909144019BBD8ABD24E630E038
:101440000AC01092750110927401809174019091FC
:1014500075010A97D0F3215030408FEF2F3F3807A6
:1014600081F7809145019091460199BD88BD24E6A0
:1014700030E00AC0109275011092740180917401DD
:10148000909175010A97D0F3215030408FEF2F3F94
:10149000380781F780914701909148019093790036
:1014A0008093780022E330E00AC010927501109218
:1014B000740180917401909175010A97D0F32150C5
:1014C00030408FEF2F3F380781F78091490190918D
:1014D0004A01909387008093860022E330E00AC09F
:1014E00010927501109274018091740190917501B0
:1014F0000A97D0F3215030408FEF2F3F380781F704
:1015000080914B0190914C019093850080938400D1
:1015100022E330E00AC010927501109274018091AC
:101520007401909175010A97D0F3215030408FEFEC
:101530002F3F380781F780914D0190914E01909394
:1015400083008093820022E330E00AC0109275018C
:101550001092740180917401909175010A97D0F3F3
:10156000215030408FEF2F3F380781F708950E94B8
:10157000EC090E94B1072AEF30E00AC01092750111
:101580001092740180917401909175010A97D0F3C3
:10159000215030408FEF2F3F380781F780E496E0ED
:1015A0009BBD8ABD24E630E00AC0109275011092FE
:1015B000740180917401909175010A97D0F32150C4
:1015C00030408FEF2F3F380781F78CED95E099BDC4
:1015D00088BD24E630E00AC01092750110927401B3
:1015E00080917401909175010A97D0F32150304099
:1015F0008FEF2F3F380781F78CED95E090937900BE
:101600008093780022E330E00AC0109275011092B6
:10161000740180917401909175010A97D0F3215063
:1016200030408FEF2F3F380781F78CED95E0909396
:1016300087008093860022E330E00AC01092750193
:101640001092740180917401909175010A97D0F302
:10165000215030408FEF2F3F380781F78CED95E018
:10166000909385008093840022E330E00AC01092BA
:1016700075011092740180917401909175010A971F
:10168000D0F3215030408FEF2F3F380781F78CED9A
:1016900095E0909383008093820022E330E00AC0BB
:1016A00010927501109274018091740190917501EE
:1016B0000A97D0F3215030408FEF2F3F380781F742
:1016C0000895833009F1843030F4813059F082304C
:1016D00009F045C010C0853069F1853000F18630D1
:1016E000F1F533C08091430190914401860F971F1B
:1016F0009BBD8ABD08958091450190914601860F5A
:10170000971F99BD88BD0895809147019091480128
:10171000860F971F909379008093780008958091A9
:10172000490190914A01860F971F909387008093FB
:101730008600089580914B0190914C01860F971F70
:101740009093850080938400089580914D0190913D
:101750004E01860F971F9093830080938200089517
:10176000CF92DF92EF92FF920F931F93CF93DF936D
:10177000F82E8B016A0123E0821711F1281738F047
:1017800081E0F81679F022E0F21649F412C085E003
:10179000F81641F1F816E8F026E0F21661F1CCE80F
:1017A000DAE033C0CAB5DBB58091430190914401C2
:1017B0002AC0C8B5D9B5809145019091460123C092
:1017C000C0917800D09179008091470190914801B3
:1017D0001AC0C0918600D0918700809149019091F4
:1017E0004A0111C0C0918400D091850080914B01C5
:1017F00090914C0108C0C0918200D09183008091EB
:101800004D0190914E01C81BD90B0C171D070CF010
:101810005BC081E0F81611F0EE2408C0EE24CE0182
:10182000801B910BC29714F0EE24E39421978F2D27
:10183000BE010E94610B109273011092720180919F
:10184000630180688093630102C00E9493058091C8
:101850007201909173018C159D05B8F3809163011D
:101860008F77809363010C171D0704F3E801EE20C6
:1018700029F54BC02196CE018D509E4F875E934037
:1018800020F48F2DBE010E94610B10927301109203
:1018900072018091630180688093630102C00E949D
:1018A000930580917201909173018C159D05B8F399
:1018B000809163018F778093630102C00F5C1F4F9B
:1018C0000C171D07BCF621C0C017D107F4F42196F0
:1018D0008F2DBE010E94610B109273011092720154
:1018E0008091630180688093630102C00E94930528
:1018F00080917201909173018C159D05B8F38091D0
:1019000063018F7780936301DFCFDF91CF911F91C8
:101910000F91FF90EF90DF90CF900895A798AF9A26
:1019200000009F9B03C010924001089581E08093C6
:1019300040010895F8940E948E0C80914001882304
:1019400009F479C01BBA8FE088BB15BA12BA13B874
:1019500010926200109265008ABB80EF87BB8CEF0B
:1019600084BB8BE081BB8AEF82B9109261008FE16A
:10197000809364000E94BF0780EC87B984E286B937
:1019800010928E008AE483BF8FEF81BF8AE085BD0D
:101990008CEC83BD38EA3FBD22E12EBD80E29EE49F
:1019A00097BD86BD1DBC1CBC30938B0020938A0064
:1019B000909381008093800010928900109288009B
:1019C0001092980089E18093990010929B0086E024
:1019D00080939D0088E980939A0087B7806887BFCD
:1019E00078940E946C088091650081608093650006
:1019F000809165008D7F8093650028EE33E00AC0FA
:101A0000109275011092740180917401909175018A
:101A10000A97D0F3215030408FEF2F3F380781F7DE
:101A2000809165008E7F8093650080916500826063
:101A30008093650008951BBA8FE088BB15BA12BA6F
:101A400013B8109262001092650080EF8ABB87BBCA
:101A50008CEF84BB8BE081BB8AEF82B9109261006E
:101A60008FE18093640084E993E00E94830D85E513
:101A700093E00E94830D8DE193E00E94830D8DED34
:101A800092E00E94830D20ED37E049E951E005C066
:101A9000CA010197F1F72150304021153105C1F7F6
:101AA00080916500816080936500809165008D7FE5
:101AB0008093650088EE93E0FA013197F1F7019782
:101AC000D9F7809165008E7F8093650080916500D5
:101AD0008D7F8093650020ED37E0DACF982F8091DD
:101AE0009B0085FFFCCF90939C000895FC0107C0EC
:101AF00080919B0085FFFCCF319690939C00908154
:101B00009923B1F708959C0106C080919B0085FF41
:101B1000FCCF90939C00F9012F5F3F4F9491992344
:101B2000A1F70895FC01E40FF11D08C080919B000E
:101B300085FFFCCF319690939C0061509081992352
:101B400011F0662399F708951F920F920FB60F9226
:101B500011248F939F93EF93FF93DF93CF930F9273
:101B6000CDB7DEB780919C0089838091770188236F
:101B700091F490917901E92FF0E08981E658FE4FC8
:101B800080839F5F9093790180917801981718F076
:101B900082E0809377010F90CF91DF91FF91EF91D9
:101BA0009F918F910F900FBE0F901F9018951092DC
:101BB00079018093780110927701089580917701DF
:101BC0008823E1F30895AC0120E00AC0E22FF0E0A1
:101BD000DF01A658BE4F8C91E40FF51F80832F5F65
:101BE00080917801281790F381E080937701089520
:101BF0001092780181E08093770108951092790125
:101C00008093780110927701809177018823E1F326
:101C100090E00AC0E92FF0E0DF01A658BE4F8C919A
:101C2000E60FF71F80839F5F80917801981790F3EC
:101C300081E08093770108950F931F93DF93CF93F3
:101C4000CDB7DEB761970FB6F894DEBF0FBECDBF3C
:101C5000462F8E010F5F1F4FB80150E00E949F0E6C
:101C6000C8010E94760D61960FB6F894DEBF0FBED4
:101C7000CDBFCF91DF911F910F910895FF920F93E8
:101C80001F93DF93CF93CDB7DEB761970FB6F8946C
:101C9000DEBF0FBECDBF262FF42E8E010F5F1F4F6C
:101CA000B801422F50E00E949F0EF80101900020E1
:101CB000E9F73197E01BF10B4F2D4E1B14167CF406
:101CC00090E3415080919B0085FFFCCF90939C0056
:101CD0004423B9F7CE0101960E94760D05C04195C7
:101CE000C8016F2D0E94920D61960FB6F894DEBF69
:101CF0000FBECDBFCF91DF911F910F91FF9008953F
:101D0000629FD001739FF001829FE00DF11D649FDF
:101D1000E00DF11D929FF00D839FF00D749FF00D6B
:101D2000659FF00D9927729FB00DE11DF91F639F0C
:101D3000B00DE11DF91FBD01CF0111240895FB0174
:101D40009F01E8944230C4F04532B4F44A3029F49B
:101D500097FB1EF4909581959F4F642F77270E94E3
:101D6000D00E805D8A330CF0895D8193CB010097A2
:101D7000A1F716F45DE251931082C9010C94C00ED4
:101D8000DC01FC01672F71917723E1F7329704C0E2
:101D90007C916D9370836291AE17BF07C8F308956D
:101DA000AA1BBB1B51E107C0AA1FBB1FA617B70781
:101DB00010F0A61BB70B881F991F5A95A9F780959D
:0C1DC0009095BC01CD010895F894FFCF70
:101DCC0031323334353637383930616263646566A5
:101DDC006768696A6B6C6D6E6F707172737475760F
:101DEC007778797A4142434445464748494A4B4CB7
:101DFC004D4E4F505152535455565758595A00FF47
:00000001FF
