:100000000C9410010C942D010C942D010C942D01D5
:100010000C942D010C942D010C942D010C942D01A8
:100020000C942D010C9424020C942D010C942D01A0
:100030000C942D010C942D010C942D010C942D0188
:100040000C942D010C942D010C942D010C942D0178
:100050000C942D010C942D010C942D010C942D0168
:100060000C942D010C942D010C942D010C942D0158
:100070000C942D010C942D010C94F40C0C942D0176
:100080000C942D010C942D010C942D013C01400188
:1000900044014A014E0154015A0164016A0174018C
:1000A0007A0184018A019801AF01C701E4010A20A5
:1000B0004B657920426F61726420436F6E74726F7A
:1000C0006C202D2050726573732061204B6579215F
:1000D0000A0A000A205350454544204445435245EE
:1000E000415345202D2D2D000A20535045454420D5
:1000F000494E435245415345202B2B2B000A205398
:1001000050454544204445435245415345202D2DFB
:100110002D000A20535045454420494E4352454145
:100120005345202B2B2B002323232323232323235B
:10013000232323232323232323232323232323238F
:10014000232323232323232323232323232323237F
:10015000232323232323232323232323232323236F
:10016000232323230A0A00466F72206F6C64657292
:10017000207265766973696F6E7320796F75206E72
:1001800065656420746865206F6C64206578616DB6
:10019000706C652070726F6772616D73210A004523
:1001A00052524F523A20546869732070726F6772CE
:1001B000616D20697320696E74656E646564206684
:1001C0006F7220746865206E657720526F626F745D
:1001D0002041524D20763320504342210A000A0A22
:1001E00023232323232323232323232323232323DF
:1001F00023232323232323232323232323232323CF
:1002000023232323232323232323232323232323BE
:10021000232323232323232323232323230A00000D
:1002200011241FBECFEFD0E1DEBFCDBF11E0A0E0B3
:10023000B1E0ECE6FCE102C005900D92A430B107FC
:10024000D9F711E0A4E0B1E001C01D92AD34B107CF
:10025000E1F70E9402020C94340E0C940000FC01A1
:100260008131910508F0CDC0EA5BFF4FEE0FFF1F13
:100270000590F491E02D099480E00E94CE0208954B
:100280008AB59BB5019703C08AB59BB501969BBD06
:100290008ABD49C088B599B5019703C088B599B59D
:1002A000019699BD88BD3FC08091780090917900FA
:1002B000019705C080917800909179000196909304
:1002C0007900809378002FC08091860090918700FC
:1002D000019705C0809186009091870001969093C8
:1002E0008700809386001FC08091840090918500D4
:1002F000019705C0809184009091850001969093AC
:100300008500809384000FC08091820090918300CB
:10031000019705C08091820090918300019690938F
:10032000830080938200809100010E94AE020895B4
:1003300082E191E00E94D30C809100019091010133
:1003400001979093010180930001029734F481E0BA
:1003500090E0909301018093000181E02EC08DEF29
:1003600090E00E94D30C80910001909101010196D0
:1003700090930101809300018739910534F086E95B
:1003800090E0909301018093000182E016C088EE16
:1003900090E00E94D30C809100019091010101979F
:1003A0009093010180930001029734F481E090E082
:1003B000909301018093000184E00E94CE0284EFBB
:1003C00091E00E94BC02089583ED90E00E94D30C5E
:1003D0008091000190910101019690930101809319
:1003E00000018739910534F086E990E0909301018E
:1003F0008093000188E00E94CE0284EF91E00E9489
:10040000BC0208950E94EA0B88EE93E00E94BC02B1
:100410008AE090E090930101809300018EEA90E0E1
:100420000E94D30C0E94020980E293E00E94BC0269
:1004300080E00E94CE020E943F030E942F0181E0D3
:1004400090E00E94BC02F7CF1F920F920FB60F925E
:1004500011248F939F9380913701909138010196D9
:100460009093380180933701809139018F5F809399
:10047000390181508A3008F46AC08091260180FFDA
:1004800009C080912701909128010196909328013D
:10049000809327018091260181FF09C08091290165
:1004A00090912A01019690932A01809329018091CD
:1004B000260182FF09C080912B0190912C010196A9
:1004C00090932C0180932B018091260183FF09C01A
:1004D00080912D0190912E01019690932E01809391
:1004E0002D018091260184FF09C080912F019091F8
:1004F000300101969093300180932F018091260165
:1005000085FF09C08091310190913201019690934D
:100510003201809331018091260186FF09C08091CC
:10052000330190913401019690933401809333010B
:100530008091260187FF09C0809135019091360195
:1005400001969093360180933501109239019F9165
:100550008F910F900FBE0F901F9018951092380139
:1005600010923701282F30E08091370190913801A7
:1005700082179307C8F308959C010CC010923801AC
:100580001092370180913701909138010A97D0F38A
:10059000215030402115310589F70895E5E6F0E056
:1005A0009081907F908390818F70892B80830895B4
:1005B000909165009E7F909365002091650090E08A
:1005C000811191E0922B90936500089590916500C0
:1005D0009D7F9093650090916500811182E0892B49
:1005E000809365000895909165009B7F90936500CE
:1005F00090916500811184E0892B809365000895B6
:1006000090916500977F90936500909165008111AE
:1006100088E0892B809365000895E5E6F0E080810D
:100620008160808380818D7F80830895E5E6F0E09E
:1006300080818E7F80838081826080830895E5E65B
:10064000F0E0808181608083808182608083089572
:10065000E5E6F0E080818E7F808380818D7F8083DE
:10066000089580910401882311F48AE601C08DE188
:1006700083BF08958AE483BF089581BF0895809160
:100680000401882309F48BC08FE08ABB81E08BBB17
:100690001092380110923701809137019091380102
:1006A0000F97D0F389B3682F70E020E830E040E086
:1006B00050E0C901862397238217930709F4F6C0F7
:1006C0004F5F5F4F4430510519F035952795F1CFB5
:1006D00082E08BBB10923801109237018091370174
:1006E000909138010F97D0F389B3682F70E020E81C
:1006F00030E040E050E0C90186239723821793073A
:1007000009F4AFC04F5F5F4F4430510519F0359584
:100710002795F1CF84E08BBB1092380110923701FE
:1007200080913701909138010F97D0F389B3682FEA
:1007300070E020E830E040E050E0C90186239723D4
:100740008217930709F468C04F5F5F4F443051052B
:1007500019F035952795F1CF88E08BBB10923801C1
:100760001092370180913701909138010F97D0F3A3
:1007700089B3682F70E040E850E020E030E0CA0123
:10078000862397232F5F3F4F8417950709F49CC05A
:100790002430310509F496C055954795F0CF80EF88
:1007A0008ABB80E18BBB1092380110923701809197
:1007B0003701909138010F97D0F389B3682F70E01B
:1007C00041E050E020E030E0CA01862397232F5F0C
:1007D0003F4F8417950709F477C02430310519F08D
:1007E000440F551FF1CF80E28BBB1092380110925D
:1007F000370180913701909138010F97D0F389B379
:10080000682F70E021E030E040E050E0C90186232D
:1008100097238217930721F49A012B5F3F4F54C00F
:100820004F5F5F4F4430510519F0220F331FEECF59
:1008300080E48BBB10923801109237018091370110
:10084000909138010F97D0F389B3682F70E021E0C1
:1008500030E040E050E0C9018623972382179307D8
:1008600021F49A01275F3F4F2FC04F5F5F4F443005
:10087000510519F0220F331FEECF80E88BBB109289
:1008800038011092370180913701909138010F970C
:10089000D0F389B3682F70E021E030E040E050E011
:1008A000C901862397238217930721F49A01235FB6
:1008B0003F4F0AC04F5F5F4F4430510519F0220F80
:1008C000331FEECF20E030E0C9010895369B03C00E
:1008D00020E030E01DC0806487B986E886B922E058
:1008E00030E00AC010923801109237018091370130
:1008F000909138010A97D0F3215030408FEF2F3F6D
:10090000380781F7369A3699FECF16B824B135B13B
:10091000C901089517B886E186B910BC08958064AE
:1009200087B986ED86B90895369969C0209102018C
:100930002430B9F1253050F42130D9F0213088F03D
:100940002230F9F0233009F052C023C02630E1F103
:10095000263078F1273009F43FC02F3F09F047C017
:1009600041C084B195B1909316018093150181E443
:1009700027C084B195B1909318018093170182E448
:100980001FC084B195B190931C0180931B0183E437
:1009900017C084B195B1909314018093130184E43E
:1009A0000FC084B195B190931E0180931D0185E421
:1009B00007C084B195B190931A018093190186E420
:1009C00087B986ED86B918C084B195B1909323019B
:1009D0008093220187E4F4CF84B195B190932101F3
:1009E0008093200180E487B986ED86B902C0273064
:1009F00018F01092020108952F5F209302010895CC
:100A00003699ACC040910201443009F459C04530D8
:100A100050F4413029F1413098F0423089F14330AF
:100A200009F094C03DC0463009F46DC0463008F46A
:100A300057C0473009F477C04F3F09F087C081C0E5
:100A400084B195B12091150130911601820F931F49
:100A500096958795909316018093150181E44FC078
:100A600084B195B12091170130911801820F931F25
:100A700096958795909318018093170182E43FC063
:100A800084B195B120911B0130911C01820F931FFD
:100A90009695879590931C0180931B0183E42FC04A
:100AA00084B195B12091130130911401820F931FED
:100AB00096958795909314018093130184E41FC049
:100AC00084B195B120911D0130911E01820F931FB9
:100AD0009695879590931E0180931D0185E40FC024
:100AE00084B195B12091190130911A01820F931FA1
:100AF0009695879590931A018093190186E487B99A
:100B000086ED86B928C084B195B12091220130913B
:100B10002301820F931F96958795909323018093CD
:100B2000220187E4ECCF84B195B12091200130916E
:100B30002101820F931F96958795909321018093B1
:100B4000200180E487B986ED86B902C0473018F0ED
:100B50001092020108954F5F409302010895282FDB
:100B6000369960C0809102018430C1F1853050F423
:100B70008130E1F0813090F0823001F1833009F072
:100B80004FC024C08630D1F1863080F18730F1F13A
:100B90008F3F09F045C0822F80643FC084B195B17A
:100BA000909316018093150180E437C084B195B10C
:100BB000909318018093170181E42FC084B195B1FF
:100BC00090931C0180931B0182E427C084B195B1EE
:100BD000909314018093130183E41FC084B195B1F5
:100BE00090931E0180931D0184E417C084B195B1D8
:100BF00090931A018093190185E40FC084B195B1D7
:100C0000909323018093220186E407C084B195B1BB
:100C1000909321018093200187E487B986ED86B9FE
:100C2000209302010895CF93DF93EC0110923601D7
:100C3000109235018091260180688093260102C0C0
:100C40000E94940480913501909136018C179D0784
:100C5000B8F3809126018F7780932601DF91CF91A1
:100C60000895CF93DF93EC01109236011092350175
:100C70008091260180688093260102C00E940005B1
:100C800080913501909136018C179D07B8F38091C2
:100C900026018F7780932601DF91CF910895A0E000
:100CA000B0E0BC01CD0120E533EC40E050E00E9413
:100CB000D00D9B01AC01BEE0569547953795279521
:100CC000BA95D1F7C9010895E199FECF90E09FBB95
:100CD0008EBB6DBBE29AE19A0895E199FECF90E058
:100CE0009FBB8EBBE09A8DB3089582E060910701AF
:100CF0000E9464066091080183E00E94640684E01B
:100D0000609109010E94640660910A0185E00E94D9
:100D1000640686E060910B010E94640660910C01FC
:100D200087E00E94640688E060910D010E946406DD
:100D300060910E0189E00E9464068AE060910F01D3
:100D40000E946406609110018BE00E9464068CE0B2
:100D5000609111010E946406609112018DE00E9471
:100D60006406089580910401882321F08091650034
:100D7000806103C080916500877F8093650008953E
:100D800080910401882321F0809165008F7E03C04B
:100D900080916500886080936500089580910701C7
:100DA000909108019BBD8ABD24E630E00AC01092F4
:100DB00038011092370180913701909138010A97DC
:100DC000D0F3215030408FEF2F3F380781F78091CB
:100DD000090190910A0199BD88BD24E630E00AC05E
:100DE00010923801109237018091370190913801AB
:100DF0000A97D0F3215030408FEF2F3F380781F70B
:100E000080910B0190910C01909379008093780070
:100E100022E330E00AC0109238011092370180912D
:100E20003701909138010A97D0F3215030408FEF6D
:100E30002F3F380781F780910D0190910E0190931B
:100E400087008093860022E330E00AC010923801C8
:100E50001092370180913701909138010A97D0F3B1
:100E6000215030408FEF2F3F380781F780910F01DD
:100E700090911001909385008093840022E330E0EC
:100E80000AC0109238011092370180913701909179
:100E900038010A97D0F3215030408FEF2F3F3807A9
:100EA00081F78091110190911201909383008093BA
:100EB000820022E330E00AC010923801109237011C
:100EC00080913701909138010A97D0F3215030403A
:100ED0008FEF2F3F380781F70895E199FECF82E029
:100EE00090E09FBB8EBBE09A3DB3E199FECF83E0DB
:100EF00090E09FBB8EBBE09A2DB3922F80E0232F12
:100F000030E0822B932B9093080180930701E199A5
:100F1000FECF84E090E09FBB8EBBE09A3DB3E199A9
:100F2000FECF85E090E09FBB8EBBE09A2DB3922F61
:100F300080E0232F30E0822B932B90930A01809343
:100F40000901E199FECF86E090E09FBB8EBBE09A5D
:100F50003DB3E199FECF87E090E09FBB8EBBE09A66
:100F60002DB3922F80E0232F30E0822B932B909390
:100F70000C0180930B01E199FECF88E090E09FBBCC
:100F80008EBBE09A3DB3E199FECF89E090E09FBB34
:100F90008EBBE09A2DB3922F80E0232F30E0822B7E
:100FA000932B90930E0180930D01E199FECF8AE07F
:100FB00090E09FBB8EBBE09A3DB3E199FECF8BE002
:100FC00090E09FBB8EBBE09A2DB3922F80E0232F41
:100FD00030E0822B932B9093100180930F01E199C5
:100FE000FECF8CE090E09FBB8EBBE09A3DB3E199D1
:100FF000FECF8DE090E09FBB8EBBE09A2DB3922F89
:1010000080E0232F30E0822B932B9093120180936A
:10101000110180910701909108018F5F9F4F31F47A
:101020008CED95E090930801809307018091090170
:1010300090910A018F5F9F4F31F48CED95E0909372
:101040000A018093090180910B0190910C018F5F3F
:101050009F4F31F48CED95E090930C0180930B0140
:1010600080910D0190910E018F5F9F4F31F48CEDB7
:1010700095E090930E0180930D0180910F01909166
:1010800010018F5F9F4F31F48CED95E0909310012C
:1010900080930F0180911101909112018F5F9F4FFA
:1010A00031F48CED95E090931201809311010E9430
:1010B000CE06089588EE93E09BBD8ABD24E630E01D
:1010C0000AC0109238011092370180913701909137
:1010D00038010A97D0F3215030408FEF2F3F380767
:1010E00081F788EE93E099BD88BD24E630E00AC020
:1010F0001092380110923701809137019091380198
:101100000A97D0F3215030408FEF2F3F380781F7F7
:1011100088EE93E0909379008093780022E330E0AA
:101120000AC01092380110923701809137019091D6
:1011300038010A97D0F3215030408FEF2F3F380706
:1011400081F788EE93E0909387008093860022E3F6
:1011500030E00AC0109238011092370180913701B7
:10116000909138010A97D0F3215030408FEF2F3FF4
:10117000380781F788EE93E0909385008093840090
:1011800022E330E00AC010923801109237018091BA
:101190003701909138010A97D0F3215030408FEFFA
:1011A0002F3F380781F788EE93E090938300809378
:1011B000820022E330E00AC0109238011092370119
:1011C00080913701909138010A97D0F32150304037
:1011D0008FEF2F3F380781F708951BBC1ABC19BC4D
:1011E00018BC10927900109278001092870010922B
:1011F0008600109285001092840010928300109255
:10120000820008950E94ED080E94B2062AEF30E0A5
:101210000AC01092380110923701809137019091E5
:1012200038010A97D0F3215030408FEF2F3F380715
:1012300081F780910701909108019BBD8ABD24E64A
:1012400030E00AC0109238011092370180913701C6
:10125000909138010A97D0F3215030408FEF2F3F03
:10126000380781F78091090190910A0199BD88BDE5
:1012700024E630E00AC010923801109237018091C4
:101280003701909138010A97D0F3215030408FEF09
:101290002F3F380781F780910B0190910C019093BB
:1012A00079008093780022E330E00AC01092380180
:1012B0001092370180913701909138010A97D0F34D
:1012C000215030408FEF2F3F380781F780910D017B
:1012D00090910E01909387008093860022E330E086
:1012E0000AC0109238011092370180913701909115
:1012F00038010A97D0F3215030408FEF2F3F380745
:1013000081F780910F019091100190938500809357
:10131000840022E330E00AC01092380110923701B5
:1013200080913701909138010A97D0F321503040D5
:101330008FEF2F3F380781F78091110190911201B3
:10134000909383008093820022E330E00AC01092E1
:1013500038011092370180913701909138010A9736
:10136000D0F3215030408FEF2F3F380781F7089599
:101370000E94ED080E94B2062AEF30E00AC01092E7
:1013800038011092370180913701909138010A9706
:10139000D0F3215030408FEF2F3F380781F780E4A2
:1013A00096E09BBD8ABD24E630E00AC01092380169
:1013B0001092370180913701909138010A97D0F34C
:1013C000215030408FEF2F3F380781F78CED95E0AB
:1013D00099BD88BD24E630E00AC010923801109211
:1013E000370180913701909138010A97D0F321504D
:1013F00030408FEF2F3F380781F78CED95E09093C9
:1014000079008093780022E330E00AC0109238011E
:101410001092370180913701909138010A97D0F3EB
:10142000215030408FEF2F3F380781F78CED95E04A
:10143000909387008093860022E330E00AC01092E8
:1014400038011092370180913701909138010A9745
:10145000D0F3215030408FEF2F3F380781F78CEDCC
:1014600095E0909385008093840022E330E00AC0E9
:101470001092380110923701809137019091380114
:101480000A97D0F3215030408FEF2F3F380781F774
:101490008CED95E0909383008093820022E330E00E
:1014A0000AC0109238011092370180913701909153
:1014B00038010A97D0F3215030408FEF2F3F380783
:1014C00081F70895833009F1843030F4813059F088
:1014D000823009F045C010C0853069F1853000F1D7
:1014E0008630F1F533C08091070190910801860F95
:1014F000971F9BBD8ABD08958091090190910A01B3
:10150000860F971F99BD88BD089580910B0190911A
:101510000C01860F971F90937900809378000895AF
:1015200080910D0190910E01860F971F9093870077
:1015300080938600089580910F0190911001860F8D
:10154000971F9093850080938400089580911101E6
:1015500090911201860F971F9093830080938200D1
:101560000895AF92BF92CF92DF92EF92FF920F93C6
:101570001F93CF93DF93D82E7B015A0123E082176C
:1015800011F1281738F081E0D81679F092E0D916D9
:1015900049F412C025E0821741F18217E8F086E095
:1015A000D81661F1CCE8DAE033C0CAB5DBB580917A
:1015B0000701909108012AC0C8B5D9B580910901E9
:1015C00090910A0123C0C0917800D0917900809158
:1015D0000B0190910C011AC0C0918600D091870038
:1015E00080910D0190910E0111C0C0918400D091A5
:1015F000850080910F019091100108C0C091820078
:10160000D09183008091110190911201C81BD90BD8
:10161000EC16FD060CF05FC091E0D91611F010E059
:1016200007C010E0CE018E199F0988970CF011E0D9
:1016300021978D2DBE010E94620A109236011092F0
:1016400035018091260180688093260102C00E94A6
:10165000940480913501909136018A159B05B8F369
:10166000809126018F7780932601EC16FD0604F306
:10167000E701112329F597C02196CE018D509E4F89
:10168000875E934020F48D2DBE010E94620A109265
:1016900036011092350180912601806880932601E1
:1016A00002C00E9494048091350190913601801708
:1016B0009107B8F3809126018F778093260107C0A8
:1016C00081E390E0E80EF91E85010E5F1F4FEC16D6
:1016D000FD0694F668C0CE15DF050CF064C091E0FD
:1016E000D91611F0CC2408C0CC24C7018C1B9D0B4B
:1016F0004E9714F0CC24C3948E010F5F1F4F8D2D95
:10170000B8010E94620A1092360110923501809150
:10171000260180688093260102C00E949404809173
:101720003501909136018A159B05B8F38091260109
:101730008F77809326010E151F05FCF2CE01809550
:1017400090958E0D9F1D2196C80FD91FCC2029F58D
:101750002AC02197CE018D509E4F875E934020F482
:101760008D2DBE010E94620A109236011092350141
:101770008091260180688093260102C00E94940413
:1017800080913501909136018A159B05B8F38091BF
:1017900026018F778093260103C087010D511040E9
:1017A000C017D107B4F6DF91CF911F910F91FF9031
:1017B000EF90DF90CF90BF90AF900895A798AF9A29
:1017C00000009F9B03C010920401089581E0809364
:1017D00004010895F8940E94DE0B8091040188238F
:1017E00009F479C01BBA8FE088BB15BA12BA13B8D6
:1017F00010926200109265008ABB80EF87BB8CEF6D
:1018000084BB8BE081BB8AEF82B9109261008FE1CB
:10181000809364000E94C00680EC87B984E286B998
:1018200010928E008AE483BF8FEF81BF8AE085BD6E
:101830008CEC83BD38EA3FBD22E12EBD80E29EE400
:1018400097BD86BD1DBC1CBC30938B0020938A00C5
:1018500090938100809380001092890010928800FC
:101860001092980089E18093990010929B0086E085
:1018700080939D0088E980939A0087B7806887BF2E
:1018800078940E946D078091650081608093650067
:10189000809165008D7F8093650028EE33E00AC05B
:1018A00010923801109237018091370190913801E0
:1018B0000A97D0F3215030408FEF2F3F380781F740
:1018C000809165008E7F80936500809165008260C5
:1018D0008093650008951BBA8FE088BB15BA12BAD1
:1018E00013B8109262001092650080EF8ABB87BB2C
:1018F0008CEF84BB8BE081BB8AEF82B910926100D0
:101900008FE1809364008EED91E00E94D30C8FE90B
:1019100091E00E94D30C87E691E00E94D30C87E20D
:1019200091E00E94D30C20ED37E049E951E005C079
:10193000CA010197F1F72150304021153105C1F757
:1019400080916500816080936500809165008D7F46
:101950008093650088EE93E0FA013197F1F70197E3
:10196000D9F7809165008E7F809365008091650036
:101970008D7F8093650020ED37E0DACF982F80913E
:101980009B0085FFFCCF90939C000895FC0107C04D
:1019900080919B0085FFFCCF319690939C009081B5
:1019A0009923B1F708959C0106C080919B0085FFA3
:1019B000FCCF90939C00F9012F5F3F4F94919923A6
:1019C000A1F70895FC01E40FF11D08C080919B0070
:1019D00085FFFCCF319690939C00615090819923B4
:1019E00011F0662399F708951F920F920FB60F9288
:1019F00011248F939F93EF93FF93DF93CF930F92D5
:101A0000CDB7DEB780919C00898380913A0188230D
:101A100091F490913C01E92FF0E08981E35CFE4F65
:101A200080839F5F90933C0180913B01981718F051
:101A300082E080933A010F90CF91DF91FF91EF9177
:101A40009F918F910F900FBE0F901F90189510923D
:101A50003C0180933B0110923A01089580913A0134
:101A60008823E1F30895AC0120E00AC0E22FF0E002
:101A7000DF01A35CBE4F8C91E40FF51F80832F5FC5
:101A800080913B01281790F381E080933A010895FB
:101A900010923B0181E080933A01089510923C013D
:101AA00080933B0110923A0180913A018823E1F33F
:101AB00090E00AC0E92FF0E0DF01A35CBE4F8C91FB
:101AC000E60FF71F80839F5F80913B01981790F38B
:101AD00081E080933A0108950F931F93DF93CF9392
:101AE000CDB7DEB761970FB6F894DEBF0FBECDBF9E
:101AF000462F8E010F5F1F4FB80150E00E94EF0D7F
:101B0000C8010E94C60C61960FB6F894DEBF0FBEE6
:101B1000CDBFCF91DF911F910F910895FF920F9349
:101B20001F93DF93CF93CDB7DEB761970FB6F894CD
:101B3000DEBF0FBECDBF262FF42E8E010F5F1F4FCD
:101B4000B801422F50E00E94EF0DF80101900020F3
:101B5000E9F73197E01BF10B4F2D4E1B14167CF467
:101B600090E3415080919B0085FFFCCF90939C00B7
:101B70004423B9F7CE0101960E94C60C05C04195D9
:101B8000C8016F2D0E94E20C61960FB6F894DEBF7B
:101B90000FBECDBFCF91DF911F910F91FF900895A0
:101BA000629FD001739FF001829FE00DF11D649F41
:101BB000E00DF11D929FF00D839FF00D749FF00DCD
:101BC000659FF00D9927729FB00DE11DF91F639F6E
:101BD000B00DE11DF91FBD01CF0111240895FB01D6
:101BE0009F01E8944230C4F04532B4F44A3029F4FD
:101BF00097FB1EF4909581959F4F642F77270E9445
:101C0000200E805D8A330CF0895D8193CB010097B3
:101C1000A1F716F45DE251931082C9010C94100EE5
:101C2000DC01FC01672F71917723E1F7329704C043
:101C30007C916D9370836291AE17BF07C8F30895CE
:101C4000AA1BBB1B51E107C0AA1FBB1FA617B707E2
:101C500010F0A61BB70B881F991F5A95A9F78095FE
:0C1C60009095BC01CD010895F894FFCFD1
:041C6C000A00FF006B
:00000001FF
