:100000000C94C2000C94DF000C94DF000C94DF0011
:100010000C94DF000C94DF000C94DF000C94DF00E4
:100020000C94DF000C9464010C94DF000C94DF004E
:100030000C94DF000C94DF000C94DF000C94DF00C4
:100040000C94DF000C94DF000C94DF000C94DF00B4
:100050000C94DF000C94DF000C94DF000C94DF00A4
:100060000C94DF000C94DF000C94DF000C94DF0094
:100070000C94DF000C94DF000C94340C0C94DF0023
:100080000C94DF000C94DF000C94DF002323232367
:100090002323232323232323232323232323232330
:1000A0002323232323232323232323232323232320
:1000B0002323232323232323232323232323232310
:1000C0002323232323232323230A0A00466F72209A
:1000D0006F6C646572207265766973696F6E7320E8
:1000E000796F75206E65656420746865206F6C6437
:1000F000206578616D706C652070726F6772616DDC
:1001000073210A004552524F523A205468697320B5
:1001100070726F6772616D20697320696E74656EAD
:1001200064656420666F7220746865206E65772050
:10013000526F626F742041524D20763320504342FB
:10014000210A000A0A2323232323232323232323EF
:10015000232323232323232323232323232323236F
:10016000232323232323232323232323232323235F
:10017000232323232323232323232323232323234F
:1001800023230A0011241FBECFEFD0E1DEBFCDBF75
:1001900011E0A0E0B1E0ECEEFAE102C005900D92B2
:1001A000A230B107D9F711E0A2E0B1E001C01D9281
:1001B000AB34B107E1F70E94E1000C94740D0C948C
:1001C00000000E942A0B0E94420888EE93E00E94E1
:1001D000FC0180E293E00E94FC0181E00E940E029B
:1001E00085E060E273E043E050E00E94F10981E0C5
:1001F00060E77EEF41E050E00E94F10988EE93E075
:100200000E94FC0181E06CE271E041E050E00E945C
:10021000F10982E06CE07EEF41E050E00E94F109DC
:1002200082E064EF71E041E050E00E94F10982E079
:1002300060E070E041E050E00E94F10983E060E995
:1002400071E041E050E00E94F10989E00E940E0255
:1002500083E06CE07EEF41E050E00E94F10983E032
:1002600060E070E041E050E00E94F10984E064EF5A
:1002700071E042E050E00E94F10984E060E77EEF27
:1002800042E050E00E94F10984E060E070E042E06A
:1002900050E00E94F10986E064EF71E042E050E036
:1002A0000E94F10986E06CE07EEF42E050E00E949F
:1002B000F10986E060E070E042E050E00E94F10960
:1002C0008FE00E940E0285CF1F920F920FB60F9201
:1002D00011248F939F93809135019091360101965F
:1002E0009093360180933501809137018F5F809321
:1002F000370181508A3008F46AC08091240180FF60
:1003000009C08091250190912601019690932601C4
:10031000809325018091240181FF09C080912701EC
:100320009091280101969093280180932701809154
:10033000240182FF09C08091290190912A01019630
:1003400090932A01809329018091240183FF09C0A1
:1003500080912B0190912C01019690932C01809318
:100360002B018091240184FF09C080912D0190917F
:100370002E01019690932E0180932D0180912401EE
:1003800085FF09C080912F019091300101969093D3
:10039000300180932F018091240186FF09C0809154
:1003A0003101909132010196909332018093310195
:1003B0008091240187FF09C080913301909134011D
:1003C00001969093340180933301109237019F91ED
:1003D0008F910F900FBE0F901F90189510923601BD
:1003E00010923501282F30E080913501909136012F
:1003F00082179307C8F308959C010CC01092360130
:100400001092350180913501909136010A97D0F311
:10041000215030402115310589F70895E5E6F0E0D7
:100420009081907F908390818F70892B8083089535
:10043000909165009E7F909365002091650090E00B
:10044000811191E0922B9093650008959091650041
:100450009D7F9093650090916500811182E0892BCA
:10046000809365000895909165009B7F909365004F
:1004700090916500811184E0892B80936500089537
:1004800090916500977F9093650090916500811130
:1004900088E0892B809365000895E5E6F0E080818F
:1004A0008160808380818D7F80830895E5E6F0E020
:1004B00080818E7F80838081826080830895E5E6DD
:1004C000F0E08081816080838081826080830895F4
:1004D000E5E6F0E080818E7F808380818D7F808360
:1004E000089580910201882311F48AE601C08DE10C
:1004F00083BF08958AE483BF089581BF08958091E2
:100500000201882309F48BC08FE08ABB81E08BBB9A
:10051000109236011092350180913501909136018B
:100520000F97D0F389B3682F70E020E830E040E007
:1005300050E0C901862397238217930709F4F6C078
:100540004F5F5F4F4430510519F035952795F1CF36
:1005500082E08BBB109236011092350180913501FB
:10056000909136010F97D0F389B3682F70E020E89F
:1005700030E040E050E0C9018623972382179307BB
:1005800009F4AFC04F5F5F4F4430510519F0359506
:100590002795F1CF84E08BBB109236011092350184
:1005A00080913501909136010F97D0F389B3682F70
:1005B00070E020E830E040E050E0C9018623972356
:1005C0008217930709F468C04F5F5F4F44305105AD
:1005D00019F035952795F1CF88E08BBB1092360145
:1005E0001092350180913501909136010F97D0F32B
:1005F00089B3682F70E040E850E020E030E0CA01A5
:10060000862397232F5F3F4F8417950709F49CC0DB
:100610002430310509F496C055954795F0CF80EF09
:100620008ABB80E18BBB109236011092350180911C
:100630003501909136010F97D0F389B3682F70E0A0
:1006400041E050E020E030E0CA01862397232F5F8D
:100650003F4F8417950709F477C02430310519F00E
:10066000440F551FF1CF80E28BBB109236011092E0
:10067000350180913501909136010F97D0F389B300
:10068000682F70E021E030E040E050E0C9018623AF
:1006900097238217930721F49A012B5F3F4F54C091
:1006A0004F5F5F4F4430510519F0220F331FEECFDB
:1006B00080E48BBB10923601109235018091350198
:1006C000909136010F97D0F389B3682F70E021E045
:1006D00030E040E050E0C90186239723821793075A
:1006E00021F49A01275F3F4F2FC04F5F5F4F443087
:1006F000510519F0220F331FEECF80E88BBB10920B
:1007000036011092350180913501909136010F9795
:10071000D0F389B3682F70E021E030E040E050E092
:10072000C901862397238217930721F49A01235F37
:100730003F4F0AC04F5F5F4F4430510519F0220F01
:10074000331FEECF20E030E0C9010895369B03C08F
:1007500020E030E01DC0806487B986E886B922E0D9
:1007600030E00AC0109236011092350180913501B7
:10077000909136010A97D0F3215030408FEF2F3FF0
:10078000380781F7369A3699FECF16B824B135B1BD
:10079000C901089517B886E186B910BC0895806430
:1007A00087B986ED86B90895369969C02091000110
:1007B0002430B9F1253050F42130D9F0213088F0BF
:1007C0002230F9F0233009F052C023C02630E1F185
:1007D000263078F1273009F43FC02F3F09F047C099
:1007E00041C084B195B1909314018093130181E4C9
:1007F00027C084B195B1909316018093150182E4CE
:100800001FC084B195B190931A018093190183E4BC
:1008100017C084B195B1909312018093110184E4C3
:100820000FC084B195B190931C0180931B0185E4A6
:1008300007C084B195B1909318018093170186E4A5
:1008400087B986ED86B918C084B195B1909321011E
:100850008093200187E4F4CF84B195B190931F0178
:1008600080931E0180E487B986ED86B902C02730E7
:1008700018F01092000108952F5F20930001089551
:100880003699ACC040910001443009F459C045305C
:1008900050F4413029F1413098F0423089F1433031
:1008A00009F094C03DC0463009F46DC0463008F4EC
:1008B00057C0473009F477C04F3F09F087C081C067
:1008C00084B195B12091130130911401820F931FCF
:1008D00096958795909314018093130181E44FC0FE
:1008E00084B195B12091150130911601820F931FAB
:1008F00096958795909316018093150182E43FC0E9
:1009000084B195B12091190130911A01820F931F82
:100910009695879590931A018093190183E42FC0CF
:1009200084B195B12091110130911201820F931F72
:1009300096958795909312018093110184E41FC0CE
:1009400084B195B120911B0130911C01820F931F3E
:100950009695879590931C0180931B0185E40FC0A9
:1009600084B195B12091170130911801820F931F26
:1009700096958795909318018093170186E487B91F
:1009800086ED86B928C084B195B1209120013091BF
:100990002101820F931F9695879590932101809353
:1009A000200187E4ECCF84B195B120911E013091F4
:1009B0001F01820F931F9695879590931F01809337
:1009C0001E0180E487B986ED86B902C0473018F071
:1009D0001092000108954F5F409300010895282F61
:1009E000369960C0809100018430C1F1853050F4A7
:1009F0008130E1F0813090F0823001F1833009F0F4
:100A00004FC024C08630D1F1863080F18730F1F1BB
:100A10008F3F09F045C0822F80643FC084B195B1FB
:100A2000909314018093130180E437C084B195B191
:100A3000909316018093150181E42FC084B195B184
:100A400090931A018093190182E427C084B195B173
:100A5000909312018093110183E41FC084B195B17A
:100A600090931C0180931B0184E417C084B195B15D
:100A7000909318018093170185E40FC084B195B15C
:100A8000909321018093200186E407C084B195B141
:100A900090931F0180931E0187E487B986ED86B984
:100AA000209300010895CF93DF93EC01109234015D
:100AB000109233018091240180688093240102C048
:100AC0000E94D40380913301909134018C179D07CB
:100AD000B8F3809124018F7780932401DF91CF9127
:100AE0000895CF93DF93EC011092340110923301FB
:100AF0008091240180688093240102C00E944004F8
:100B000080913301909134018C179D07B8F3809147
:100B100024018F7780932401DF91CF910895A0E085
:100B2000B0E0BC01CD0120E533EC40E050E00E9494
:100B3000100D9B01AC01BEE0569547953795279562
:100B4000BA95D1F7C9010895E199FECF90E09FBB16
:100B50008EBB6DBBE29AE19A0895E199FECF90E0D9
:100B60009FBB8EBBE09A8DB3089582E06091050132
:100B70000E94A4056091060183E00E94A40584E020
:100B8000609107010E94A4056091080185E00E9420
:100B9000A40586E0609109010E94A40560910A0104
:100BA00087E00E94A40588E060910B010E94A405E3
:100BB00060910C0189E00E94A4058AE060910D011A
:100BC0000E94A40560910E018BE00E94A4058CE0B8
:100BD00060910F010E94A405609110018DE00E94B8
:100BE000A405089580910201882321F08091650079
:100BF000806103C080916500877F809365000895C0
:100C000080910201882321F0809165008F7E03C0CE
:100C1000809165008860809365000895809105014A
:100C2000909106019BBD8ABD24E630E00AC0109277
:100C300036011092350180913501909136010A9765
:100C4000D0F3215030408FEF2F3F380781F780914C
:100C500007019091080199BD88BD24E630E00AC0E3
:100C60001092360110923501809135019091360134
:100C70000A97D0F3215030408FEF2F3F380781F78C
:100C80008091090190910A019093790080937800F6
:100C900022E330E00AC010923601109235018091B3
:100CA0003501909136010A97D0F3215030408FEFF3
:100CB0002F3F380781F780910B0190910C019093A1
:100CC00087008093860022E330E00AC0109236014C
:100CD0001092350180913501909136010A97D0F339
:100CE000215030408FEF2F3F380781F780910D0161
:100CF00090910E01909385008093840022E330E070
:100D00000AC0109236011092350180913501909100
:100D100036010A97D0F3215030408FEF2F3F38072C
:100D200081F780910F01909110019093830080933F
:100D3000820022E330E00AC01092360110923501A1
:100D400080913501909136010A97D0F321503040BF
:100D50008FEF2F3F380781F70895E199FECF82E0AA
:100D600090E09FBB8EBBE09A3DB3E199FECF83E05C
:100D700090E09FBB8EBBE09A2DB3922F80E0232F93
:100D800030E0822B932B9093060180930501E1992B
:100D9000FECF84E090E09FBB8EBBE09A3DB3E1992B
:100DA000FECF85E090E09FBB8EBBE09A2DB3922FE3
:100DB00080E0232F30E0822B932B909308018093C7
:100DC0000701E199FECF86E090E09FBB8EBBE09AE1
:100DD0003DB3E199FECF87E090E09FBB8EBBE09AE8
:100DE0002DB3922F80E0232F30E0822B932B909312
:100DF0000A0180930901E199FECF88E090E09FBB52
:100E00008EBBE09A3DB3E199FECF89E090E09FBBB5
:100E10008EBBE09A2DB3922F80E0232F30E0822BFF
:100E2000932B90930C0180930B01E199FECF8AE004
:100E300090E09FBB8EBBE09A3DB3E199FECF8BE083
:100E400090E09FBB8EBBE09A2DB3922F80E0232FC2
:100E500030E0822B932B90930E0180930D01E1994A
:100E6000FECF8CE090E09FBB8EBBE09A3DB3E19952
:100E7000FECF8DE090E09FBB8EBBE09A2DB3922F0A
:100E800080E0232F30E0822B932B909310018093EE
:100E90000F0180910501909106018F5F9F4F31F402
:100EA0008CED95E0909306018093050180910701F8
:100EB000909108018F5F9F4F31F48CED95E09093F6
:100EC0000801809307018091090190910A018F5FC9
:100ED0009F4F31F48CED95E090930A0180930901C6
:100EE00080910B0190910C018F5F9F4F31F48CED3D
:100EF00095E090930C0180930B0180910D019091EE
:100F00000E018F5F9F4F31F48CED95E090930E01B1
:100F100080930D0180910F01909110018F5F9F4F81
:100F200031F48CED95E09093100180930F010E94B5
:100F30000E06089588EE93E09BBD8ABD24E630E05E
:100F40000AC01092360110923501809135019091BE
:100F500036010A97D0F3215030408FEF2F3F3807EA
:100F600081F788EE93E099BD88BD24E630E00AC0A1
:100F70001092360110923501809135019091360121
:100F80000A97D0F3215030408FEF2F3F380781F779
:100F900088EE93E0909379008093780022E330E02C
:100FA0000AC010923601109235018091350190915E
:100FB00036010A97D0F3215030408FEF2F3F38078A
:100FC00081F788EE93E0909387008093860022E378
:100FD00030E00AC01092360110923501809135013F
:100FE000909136010A97D0F3215030408FEF2F3F78
:100FF000380781F788EE93E0909385008093840012
:1010000022E330E00AC0109236011092350180913F
:101010003501909136010A97D0F3215030408FEF7F
:101020002F3F380781F788EE93E0909383008093F9
:10103000820022E330E00AC010923601109235019E
:1010400080913501909136010A97D0F321503040BC
:101050008FEF2F3F380781F708951BBC1ABC19BCCE
:1010600018BC1092790010927800109287001092AC
:1010700086001092850010928400109283001092D6
:10108000820008950E942D080E94F2052AEF30E0A8
:101090000AC010923601109235018091350190916D
:1010A00036010A97D0F3215030408FEF2F3F380799
:1010B00081F780910501909106019BBD8ABD24E6D0
:1010C00030E00AC01092360110923501809135014E
:1010D000909136010A97D0F3215030408FEF2F3F87
:1010E000380781F7809107019091080199BD88BD6B
:1010F00024E630E00AC0109236011092350180914A
:101100003501909136010A97D0F3215030408FEF8E
:101110002F3F380781F78091090190910A01909340
:1011200079008093780022E330E00AC01092360103
:101130001092350180913501909136010A97D0F3D4
:10114000215030408FEF2F3F380781F780910B01FE
:1011500090910C01909387008093860022E330E009
:101160000AC010923601109235018091350190919C
:1011700036010A97D0F3215030408FEF2F3F3807C8
:1011800081F780910D0190910E01909385008093DD
:10119000840022E330E00AC010923601109235013B
:1011A00080913501909136010A97D0F3215030405B
:1011B0008FEF2F3F380781F780910F019091100139
:1011C000909383008093820022E330E00AC0109263
:1011D00036011092350180913501909136010A97C0
:1011E000D0F3215030408FEF2F3F380781F708951B
:1011F0000E942D080E94F2052AEF30E00AC01092EA
:1012000036011092350180913501909136010A978F
:10121000D0F3215030408FEF2F3F380781F780E423
:1012200096E09BBD8ABD24E630E00AC010923601EC
:101230001092350180913501909136010A97D0F3D3
:10124000215030408FEF2F3F380781F78CED95E02C
:1012500099BD88BD24E630E00AC010923601109294
:10126000350180913501909136010A97D0F32150D4
:1012700030408FEF2F3F380781F78CED95E090934A
:1012800079008093780022E330E00AC010923601A2
:101290001092350180913501909136010A97D0F373
:1012A000215030408FEF2F3F380781F78CED95E0CC
:1012B000909387008093860022E330E00AC010926A
:1012C00036011092350180913501909136010A97CF
:1012D000D0F3215030408FEF2F3F380781F78CED4E
:1012E00095E0909385008093840022E330E00AC06B
:1012F000109236011092350180913501909136019E
:101300000A97D0F3215030408FEF2F3F380781F7F5
:101310008CED95E0909383008093820022E330E08F
:101320000AC01092360110923501809135019091DA
:1013300036010A97D0F3215030408FEF2F3F380706
:1013400081F70895833009F1843030F4813059F009
:10135000823009F045C010C0853069F1853000F158
:101360008630F1F533C08091050190910601860F1A
:10137000971F9BBD8ABD0895809107019091080138
:10138000860F971F99BD88BD08958091090190919E
:101390000A01860F971F9093790080937800089533
:1013A00080910B0190910C01860F971F90938700FD
:1013B00080938600089580910D0190910E01860F13
:1013C000971F9093850080938400089580910F016A
:1013D00090911001860F971F909383008093820055
:1013E0000895AF92BF92CF92DF92EF92FF920F9348
:1013F0001F93CF93DF93D82E7B015A0123E08217EE
:1014000011F1281738F081E0D81679F092E0D9165A
:1014100049F412C025E0821741F18217E8F086E016
:10142000D81661F1CCE8DAE033C0CAB5DBB58091FB
:101430000501909106012AC0C8B5D9B58091070170
:101440009091080123C0C0917800D09179008091DB
:10145000090190910A011AC0C0918600D0918700BD
:1014600080910B0190910C0111C0C0918400D0912A
:10147000850080910D0190910E0108C0C0918200FD
:10148000D091830080910F0190911001C81BD90B5E
:10149000EC16FD060CF05FC091E0D91611F010E0DB
:1014A00007C010E0CE018E199F0988970CF011E05B
:1014B00021978D2DBE010E94A20910923401109235
:1014C00033018091240180688093240102C00E942E
:1014D000D40380913301909134018A159B05B8F3B0
:1014E000809124018F7780932401EC16FD0604F38C
:1014F000E701112329F597C02196CE018D509E4F0B
:10150000875E934020F48D2DBE010E94A2091092A7
:10151000340110923301809124018068809324016A
:1015200002C00E94D403809133019091340180174E
:101530009107B8F3809124018F778093240107C02D
:1015400081E390E0E80EF91E85010E5F1F4FEC1657
:10155000FD0694F668C0CE15DF050CF064C091E07E
:10156000D91611F0CC2408C0CC24C7018C1B9D0BCC
:101570004E9714F0CC24C3948E010F5F1F4F8D2D16
:10158000B8010E94A2091092340110923301809197
:10159000240180688093240102C00E94D4038091BA
:1015A0003301909134018A159B05B8F38091240191
:1015B0008F77809324010E151F05FCF2CE018095D4
:1015C00090958E0D9F1D2196C80FD91FCC2029F50F
:1015D0002AC02197CE018D509E4F875E934020F404
:1015E0008D2DBE010E94A209109234011092330188
:1015F0008091240180688093240102C00E94D4035A
:1016000080913301909134018A159B05B8F3809144
:1016100024018F778093240103C087010D5110406E
:10162000C017D107B4F6DF91CF911F910F91FF90B2
:10163000EF90DF90CF90BF90AF900895A798AF9AAA
:1016400000009F9B03C010920201089581E08093E7
:1016500002010895F8940E941E0B809102018823D4
:1016600009F479C01BBA8FE088BB15BA12BA13B857
:1016700010926200109265008ABB80EF87BB8CEFEE
:1016800084BB8BE081BB8AEF82B9109261008FE14D
:10169000809364000E94000680EC87B984E286B9DA
:1016A00010928E008AE483BF8FEF81BF8AE085BDF0
:1016B0008CEC83BD38EA3FBD22E12EBD80E29EE482
:1016C00097BD86BD1DBC1CBC30938B0020938A0047
:1016D000909381008093800010928900109288007E
:1016E0001092980089E18093990010929B0086E007
:1016F00080939D0088E980939A0087B7806887BFB0
:1017000078940E94AD0680916500816080936500A9
:10171000809165008D7F8093650028EE33E00AC0DC
:101720001092360110923501809135019091360169
:101730000A97D0F3215030408FEF2F3F380781F7C1
:10174000809165008E7F8093650080916500826046
:101750008093650008951BBA8FE088BB15BA12BA52
:1017600013B8109262001092650080EF8ABB87BBAD
:101770008CEF84BB8BE081BB8AEF82B91092610051
:101780008FE18093640083E491E00E94130C84E075
:1017900091E00E94130C8CEC90E00E94130C8CE8FA
:1017A00090E00E94130C20ED37E049E951E005C0BC
:1017B000CA010197F1F72150304021153105C1F7D9
:1017C00080916500816080936500809165008D7FC8
:1017D0008093650088EE93E0FA013197F1F7019765
:1017E000D9F7809165008E7F8093650080916500B8
:1017F0008D7F8093650020ED37E0DACF982F8091C0
:101800009B0085FFFCCF90939C000895FC0107C0CE
:1018100080919B0085FFFCCF319690939C00908136
:101820009923B1F708959C0106C080919B0085FF24
:10183000FCCF90939C00F9012F5F3F4F9491992327
:10184000A1F70895FC01E40FF11D08C080919B00F1
:1018500085FFFCCF319690939C0061509081992335
:1018600011F0662399F708951F920F920FB60F9209
:1018700011248F939F93EF93FF93DF93CF930F9256
:10188000CDB7DEB780919C00898380913801882391
:1018900091F490913A01E92FF0E08981E55CFE4FE7
:1018A00080839F5F90933A0180913901981718F0D7
:1018B00082E0809338010F90CF91DF91FF91EF91FB
:1018C0009F918F910F900FBE0F901F9018951092BF
:1018D0003A018093390110923801089580913801BE
:1018E0008823E1F30895AC0120E00AC0E22FF0E084
:1018F000DF01A55CBE4F8C91E40FF51F80832F5F45
:1019000080913901281790F381E080933801089580
:101910001092390181E080933801089510923A01C4
:101920008093390110923801809138018823E1F3C6
:1019300090E00AC0E92FF0E0DF01A55CBE4F8C917A
:10194000E60FF71F80839F5F80913901981790F30E
:1019500081E08093380108950F931F93DF93CF9315
:10196000CDB7DEB761970FB6F894DEBF0FBECDBF1F
:10197000462F8E010F5F1F4FB80150E00E942F0DC0
:10198000C8010E94060C61960FB6F894DEBF0FBE28
:10199000CDBFCF91DF911F910F910895FF920F93CB
:1019A0001F93DF93CF93CDB7DEB761970FB6F8944F
:1019B000DEBF0FBECDBF262FF42E8E010F5F1F4F4F
:1019C000B801422F50E00E942F0DF8010190002035
:1019D000E9F73197E01BF10B4F2D4E1B14167CF4E9
:1019E00090E3415080919B0085FFFCCF90939C0039
:1019F0004423B9F7CE0101960E94060C05C041951B
:101A0000C8016F2D0E94220C61960FB6F894DEBFBC
:101A10000FBECDBFCF91DF911F910F91FF90089521
:101A2000629FD001739FF001829FE00DF11D649FC2
:101A3000E00DF11D929FF00D839FF00D749FF00D4E
:101A4000659FF00D9927729FB00DE11DF91F639FEF
:101A5000B00DE11DF91FBD01CF0111240895FB0157
:101A60009F01E8944230C4F04532B4F44A3029F47E
:101A700097FB1EF4909581959F4F642F77270E94C6
:101A8000600D805D8A330CF0895D8193CB010097F6
:101A9000A1F716F45DE251931082C9010C94500D28
:101AA000DC01FC01672F71917723E1F7329704C0C5
:101AB0007C916D9370836291AE17BF07C8F3089550
:101AC000AA1BBB1B51E107C0AA1FBB1FA617B70764
:101AD00010F0A61BB70B881F991F5A95A9F7809580
:0C1AE0009095BC01CD010895F894FFCF53
:021AEC00FF00F9
:00000001FF
