:100000000C944B020C9468020C9468020C946802E5
:100010000C9468020C9468020C9468020C946802B8
:100020000C9468020C94C1030C9468020C9468024E
:100030000C9468020C9468020C9468020C94680298
:100040000C9468020C9468020C9468020C94680288
:100050000C9468020C9468020C9468020C94680278
:100060000C9468020C9468020C9468020C94680268
:100070000C9468020C9468020C94420E0C94680272
:100080000C9468020C9468020C946802506C6561D0
:1000900073652070726573732027782720746F2032
:1000A000726573746172740A0053756363657321BA
:1000B0000A000A57726974652076616C7565732051
:1000C000746F20454570726F6D2020202E2E2E20DB
:1000D0002020000A00203D200044656661756C7494
:1000E0002076616C756520666F7220736572766F1D
:1000F00020000A00506F736974696F6E3A200069BE
:100100006E636F727265637420636F6D6D616E6490
:100110000A004D696E75730A00506C75730A0053BE
:10012000746F702028686F6C6429200A00454E4463
:100130000A00506C6561736520656E746572207984
:100140006F75722063686F6963653A20682C702C44
:100150006D2C6F6B206F7220780A002023232323DD
:100160000A00232323232043616C69627261746552
:1001700020536572766F20000A0A0020646566616C
:10018000756C742076616C75652069733A20005334
:100190006572766F2000506C6561736520656E74C2
:1001A000657220796F75722063686F6963653A20A4
:1001B000682C702C6D2C6F6B2C780A002323232362
:1001C0002043616C69627261746520536572766F59
:1001D00020312023232323230A00200A0A00456E0E
:1001E00074657220783A202049742077696C6C20FD
:1001F00073746F702064652063616C6962726174EE
:10020000696F6E2070726F6772616D0A00456E745F
:100210006572206F6B3A20496620746865207365AB
:1002200072766F207374616E647320696E207468D7
:100230006520636F727265637420706F736974698F
:100240006F6E2C0A00456E746572206D3A20205343
:100250006572766F20706F736974696F6E202D20E0
:100260000A00456E74657220703A202053657276DC
:100270006F20706F736974696F6E202B20200A00E5
:10028000456E74657220683A202053746F70207434
:10029000686520736572766F206D6F76656D656E2B
:1002A000742028686F6C64290A00596F7520636197
:1002B0006E2075736520746865206E657874206B98
:1002C00065797320746F206368616E676520746858
:1002D0006520706F736974696F6E3A0A00286368ED
:1002E00061707465723A2063616C696272617469ED
:1002F0006F6E290A0A0074686520726F626F74203D
:1003000061726D20696E207468652073616D65206F
:10031000706F736974696F6E2061732074686520F3
:100320007069637475726520696E20746865206DEC
:10033000616E75616C0A00546F2063616C69627252
:100340006174652074686520726F626F74206172D9
:100350006D20696E2074686520726967687420700A
:100360006F736974696F6E2C20796F752068617680
:100370006520746F206D6F76650A00232323232088
:10038000526F626F742041726D2043616C696272BA
:100390006174696F6E2023232323230A0023232300
:1003A000232323232323232323232323232323231D
:1003B000232323232323232323232323232323230D
:1003C00023232323232323232323232323232323FD
:1003D000232323232323232323230A0A00466F7284
:1003E000206F6C646572207265766973696F6E73D5
:1003F00020796F75206E65656420746865206F6C68
:1004000064206578616D706C652070726F677261D1
:100410006D73210A004552524F523A205468697355
:100420002070726F6772616D20697320696E7465E8
:100430006E64656420666F7220746865206E6577EF
:1004400020526F626F742041524D2076332050430A
:1004500042210A000A0A23232323232323232323BD
:10046000232323232323232323232323232323235C
:10047000232323232323232323232323232323234C
:10048000232323232323232323232323232323233C
:100490002323230A000011241FBECFEFD0E1DEBFCB
:1004A000CDBF11E0A0E0B1E0E8E0FFE102C00590BF
:1004B0000D92A230B107D9F711E0A2E0B1E001C07E
:1004C0001D92AB35B107E1F70E94B0030C94820F87
:1004D0000C940000AF92BF92DF92EF92FF920F93C5
:1004E0001F93CF93DF930E94550B84EF91E00E94FE
:1004F00059048BE793E00E94210E87E393E00E946A
:10050000210E86EF92E00E94210E8DED92E00E9476
:10051000210E8AEA92E00E94210E80E892E00E9479
:10052000210E82E692E00E94210E85E492E00E9474
:10053000210E8DE092E00E94210E8EED91E00E944E
:10054000210E8AED91E00E94210E82E00E94750E3C
:100550008CEB91E00E94210E86E991E00E94210E31
:100560008CED95E09093060180930501DD2441E038
:10057000E42EF12CC0E0D0E03CEDA32E35E0B32E0C
:1005800080914801882309F47FC08BE191E00E94AB
:10059000810E80911B018F3609F04AC080911C01A9
:1005A0008B3609F06AC08701000F111F0D5F1E4FC7
:1005B000C452DA4FF801D183C083CC5DD5408FE8B7
:1005C00091E00E94210EC7016AE00E94BA0E8BE7FB
:1005D00091E00E94210EF801808191816AE00E94E1
:1005E000BA0E88E791E00E94210E0894E11CF11CEC
:1005F000F7E0EF16F10409F444C0F701EE0FFF1F16
:10060000ED5FFE4FB182A08282E691E00E94210E52
:10061000C7016AE00E94BA0E8BE591E00E94210EAC
:1006200082E391E00E94210EDD24C0E0D0E029C0E9
:10063000883749F48DE291E00E94210E05E011E037
:10064000C1E0D0E06BC0883631F48FE191E00E94C8
:10065000210EDD2416C0803739F489E191E00E9433
:10066000210EDD24D3940DC08D3639F482E191E062
:100670000E94210E82E0D82E04C08FEF90E00E94ED
:10068000210E82E00E94750E21E0D21611F421960F
:1006900004C082E0D81609F421978E2DBE010E9475
:1006A000FF0B8FE090E00E945904809135019091FA
:1006B0003601895E9340A0F0DD2091F084EF90E058
:1006C0000E94210ECE0184529A4F6AE00E94BA0E17
:1006D00082EF90E00E94210E1092360110923501B7
:1006E000F7E0EF16F1040CF44BCFA8CF89ED90E0C2
:1006F0000E94210ECE016AE00E94BA0E85ED90E0C4
:100700000E94210EF801819191918F016AE00E946F
:10071000BA0E83ED90E00E94210E2196CE15DF05E2
:100720002CF382EB90E00E94210E0E94120889EACD
:1007300090E00E94210E0E945D088CE890E00E94EB
:10074000210E81E06BE171E00E949C0EDF91CF9160
:100750001F910F91FF90EF90DF90BF90AF900895A1
:100760000E94380D8091340181608093340184EFC0
:1007700091E00E94590488E00E946B040E946A0282
:10078000FDCF1F920F920FB60F9211248F939F935C
:100790008091450190914601019690934601809386
:1007A0004501809147018F5F8093470181508A30D6
:1007B00008F46AC08091340180FF09C0809135013E
:1007C0009091360101969093360180933501809186
:1007D000340181FF09C08091370190913801019661
:1007E00090933801809337018091340182FF09C0D2
:1007F0008091390190913A01019690933A0180934A
:1008000039018091340183FF09C080913B019091AF
:100810003C01019690933C0180933B01809134010F
:1008200084FF09C080913D0190913E010196909313
:100830003E0180933D018091340185FF09C0809184
:100840003F019091400101969093400180933F01B8
:100850008091340186FF09C080914101909142014D
:10086000019690934201809341018091340187FF6A
:1008700009C08091430190914401019690934401F5
:1008800080934301109247019F918F910F900FBE6B
:100890000F901F9018951092460110924501282F35
:1008A00030E0809145019091460182179307C8F38B
:1008B00008959C010CC01092460110924501809150
:1008C0004501909146010A97D0F3215030402115FF
:1008D000310589F70895E5E6F0E09081907F9083F7
:1008E00090818F70892B80830895909165009E7F01
:1008F000909365002091650090E0811191E0922B2A
:10090000909365000895909165009D7F9093650098
:1009100090916500811182E0892B80936500089594
:10092000909165009B7F9093650090916500811187
:1009300084E0892B80936500089590916500977FEE
:100940009093650090916500811188E0892B8093D8
:1009500065000895E5E6F0E0808181608083808114
:100960008D7F80830895E5E6F0E080818E7F80832F
:100970008081826080830895E5E6F0E08081816077
:1009800080838081826080830895E5E6F0E0808145
:100990008E7F808380818D7F808308958091020186
:1009A000882311F48AE601C08DE183BF08958AE4AB
:1009B00083BF089581BF089580910201882309F4BF
:1009C0008BC08FE08ABB81E08BBB109246011092F6
:1009D000450180914501909146010F97D0F389B36D
:1009E000682F70E020E830E040E050E0C901862345
:1009F00097238217930709F4F6C04F5F5F4F443087
:100A0000510519F035952795F1CF82E08BBB1092F7
:100A100046011092450180914501909146010F9742
:100A2000D0F389B3682F70E020E830E040E050E078
:100A3000C901862397238217930709F4AFC04F5F3C
:100A40005F4F4430510519F035952795F1CF84E07B
:100A50008BBB109246011092450180914501909107
:100A600046010F97D0F389B3682F70E020E830E09B
:100A700040E050E0C901862397238217930709F4C9
:100A800068C04F5F5F4F4430510519F03595279589
:100A9000F1CF88E08BBB1092460110924501809106
:100AA0004501909146010F97D0F389B3682F70E00C
:100AB00040E850E020E030E0CA01862397232F5F12
:100AC0003F4F8417950709F49CC02430310509F481
:100AD00096C055954795F0CF80EF8ABB80E18BBBE0
:100AE0001092460110924501809145019091460176
:100AF0000F97D0F389B3682F70E041E050E020E019
:100B000030E0CA01862397232F5F3F4F8417950754
:100B100009F477C02430310519F0440F551FF1CF87
:100B200080E28BBB109246011092450180914501F5
:100B3000909146010F97D0F389B3682F70E021E0C0
:100B400030E040E050E0C9018623972382179307E5
:100B500021F49A012B5F3F4F54C04F5F5F4F4430E9
:100B6000510519F0220F331FEECF80E48BBB10929A
:100B700046011092450180914501909146010F97E1
:100B8000D0F389B3682F70E021E030E040E050E01E
:100B9000C901862397238217930721F49A01275FBF
:100BA0003F4F2FC04F5F5F4F4430510519F0220F68
:100BB000331FEECF80E88BBB1092460110924501A7
:100BC00080914501909146010F97D0F389B3682F2A
:100BD00070E021E030E040E050E0C9018623972337
:100BE0008217930721F49A01235F3F4F0AC04F5F9A
:100BF0005F4F4430510519F0220F331FEECF20E034
:100C000030E0C9010895369B03C020E030E01DC0EC
:100C1000806487B986E886B922E030E00AC0109285
:100C200046011092450180914501909146010A9735
:100C3000D0F3215030408FEF2F3F380781F7369A9D
:100C40003699FECF16B824B135B1C901089517B849
:100C500086E186B910BC0895806487B986ED86B9AF
:100C60000895369969C0209100012430B9F12530EA
:100C700050F42130D9F0213088F02230F9F02330BF
:100C800009F052C023C02630E1F1263078F1273038
:100C900009F43FC02F3F09F047C041C084B195B16E
:100CA000909314018093130181E427C084B195B11E
:100CB000909316018093150182E41FC084B195B111
:100CC00090931A018093190183E417C084B195B100
:100CD000909312018093110184E40FC084B195B107
:100CE00090932C0180932B0185E407C084B195B1CA
:100CF000909318018093170186E487B986ED86B931
:100D000018C084B195B1909331018093300187E48C
:100D1000F4CF84B195B190932F0180932E0180E49C
:100D200087B986ED86B902C0273018F0109200010D
:100D300008952F5F2093000108953699ACC040912B
:100D40000001443009F459C0453050F4413029F1D4
:100D5000413098F0423089F1433009F094C03DC0F1
:100D6000463009F46DC0463008F457C0473009F4E6
:100D700077C04F3F09F087C081C084B195B1209101
:100D8000130130911401820F931F969587959093CC
:100D900014018093130181E44FC084B195B1209177
:100DA000150130911601820F931F969587959093A8
:100DB00016018093150182E43FC084B195B1209162
:100DC000190130911A01820F931F96958795909380
:100DD0001A018093190183E42FC084B195B1209149
:100DE000110130911201820F931F96958795909370
:100DF00012018093110184E41FC084B195B1209148
:100E00002B0130912C01820F931F9695879590931B
:100E10002C0180932B0185E40FC084B195B1209102
:100E2000170130911801820F931F96958795909323
:100E300018018093170186E487B986ED86B928C02A
:100E400084B195B12091300130913101820F931F0F
:100E500096958795909331018093300187E4ECCF8C
:100E600084B195B120912E0130912F01820F931FF3
:100E70009695879590932F0180932E0180E487B9F2
:100E800086ED86B902C0473018F01092000108952F
:100E90004F5F409300010895282F369960C08091DC
:100EA00000018430C1F1853050F48130E1F08130AF
:100EB00090F0823001F1833009F04FC024C08630B9
:100EC000D1F1863080F18730F1F18F3F09F045C0D4
:100ED000822F80643FC084B195B1909314018093B8
:100EE000130180E437C084B195B1909316018093CB
:100EF000150181E42FC084B195B190931A018093BC
:100F0000190182E427C084B195B1909312018093B6
:100F1000110183E41FC084B195B190932C0180939B
:100F20002B0184E417C084B195B19093180180938C
:100F3000170185E40FC084B195B19093310180937E
:100F4000300186E407C084B195B190932F0180935E
:100F50002E0187E487B986ED86B9209300010895B4
:100F6000CF93DF93EC0110924401109243018091E2
:100F7000340180688093340102C00E943106809160
:100F80004301909144018C179D07B8F3809134017F
:100F90008F7780933401DF91CF910895CF93DF93C2
:100FA000EC01109244011092430180913401806859
:100FB0008093340102C00E949D068091430190916C
:100FC00044018C179D07B8F3809134018F7780938B
:100FD0003401DF91CF910895A0E0B0E0BC01CD01D4
:100FE00020E533EC40E050E00E941E0F9B01AC0175
:100FF000BEE05695479537952795BA95D1F7C90123
:101000000895E199FECF90E09FBB8EBB6DBBE29A45
:10101000E19A0895E199FECF90E09FBB8EBBE09AE4
:101020008DB3089582E0609105010E9401086091EE
:10103000060183E00E94010884E0609107010E949C
:1010400001086091080185E00E94010886E0609136
:1010500009010E94010860910A0187E00E940108CD
:1010600088E060910B010E94010860910C0189E009
:101070000E9401088AE060910D010E9401086091C0
:101080000E018BE00E9401088CE060910F010E942C
:101090000108609110018DE00E940108089580917F
:1010A0000201882321F080916500806103C0809156
:1010B0006500877F809365000895809102018823F1
:1010C00021F0809165008F7E03C08091650088606B
:1010D00080936500089580910501909106019BBD64
:1010E0008ABD24E630E00AC0109246011092450104
:1010F00080914501909146010A97D0F321503040EC
:101100008FEF2F3F380781F78091070190910801F9
:1011100099BD88BD24E630E00AC0109246011092C5
:10112000450180914501909146010A97D0F32150E5
:1011300030408FEF2F3F380781F780910901909160
:101140000A01909379008093780022E330E00AC08E
:1011500010924601109245018091450190914601FF
:101160000A97D0F3215030408FEF2F3F380781F797
:1011700080910B0190910C019093870080938600E1
:1011800022E330E00AC0109246011092450180919E
:101190004501909146010A97D0F3215030408FEFDE
:1011A0002F3F380781F780910D0190910E019093A8
:1011B00085008093840022E330E00AC0109246014B
:1011C0001092450180914501909146010A97D0F314
:1011D000215030408FEF2F3F380781F780910F016A
:1011E00090911001909383008093820022E330E07D
:1011F0000AC01092460110924501809145019091DC
:1012000046010A97D0F3215030408FEF2F3F380727
:1012100081F70895E199FECF82E090E09FBB8EBBFD
:10122000E09A3DB3E199FECF83E090E09FBB8EBB97
:10123000E09A2DB3922F80E0232F30E0822B932B66
:101240009093060180930501E199FECF84E090E040
:101250009FBB8EBBE09A3DB3E199FECF85E090E065
:101260009FBB8EBBE09A2DB3922F80E0232F30E0FE
:10127000822B932B9093080180930701E199FECF75
:1012800086E090E09FBB8EBBE09A3DB3E199FECF34
:1012900087E090E09FBB8EBBE09A2DB3922F80E059
:1012A000232F30E0822B932B90930A018093090126
:1012B000E199FECF88E090E09FBB8EBBE09A3DB302
:1012C000E199FECF89E090E09FBB8EBBE09A2DB301
:1012D000922F80E0232F30E0822B932B90930C01F0
:1012E00080930B01E199FECF8AE090E09FBB8EBB1B
:1012F000E09A3DB3E199FECF8BE090E09FBB8EBBBF
:10130000E09A2DB3922F80E0232F30E0822B932B95
:1013100090930E0180930D01E199FECF8CE090E057
:101320009FBB8EBBE09A3DB3E199FECF8DE090E08C
:101330009FBB8EBBE09A2DB3922F80E0232F30E02D
:10134000822B932B9093100180930F0180910501C4
:10135000909106018F5F9F4F31F48CED95E0909353
:1013600006018093050180910701909108018F5F2C
:101370009F4F31F48CED95E0909308018093070125
:101380008091090190910A018F5F9F4F31F48CED9C
:1013900095E090930A018093090180910B0190914F
:1013A0000C018F5F9F4F31F48CED95E090930C0111
:1013B00080930B0180910D0190910E018F5F9F4FE3
:1013C00031F48CED95E090930E0180930D018091A6
:1013D0000F01909110018F5F9F4F31F48CED95E0DC
:1013E0009093100180930F010E946B08089588EE7E
:1013F00093E09BBD8ABD24E630E00AC0109246010E
:101400001092450180914501909146010A97D0F3D1
:10141000215030408FEF2F3F380781F788EE93E05F
:1014200099BD88BD24E630E00AC0109246011092B2
:10143000450180914501909146010A97D0F32150D2
:1014400030408FEF2F3F380781F788EE93E090937D
:1014500079008093780022E330E00AC010924601C0
:101460001092450180914501909146010A97D0F371
:10147000215030408FEF2F3F380781F788EE93E0FF
:10148000909387008093860022E330E00AC0109298
:1014900046011092450180914501909146010A97BD
:1014A000D0F3215030408FEF2F3F380781F788EE7F
:1014B00093E0909385008093840022E330E00AC09B
:1014C000109246011092450180914501909146018C
:1014D0000A97D0F3215030408FEF2F3F380781F724
:1014E00088EE93E0909383008093820022E330E0C3
:1014F0000AC01092460110924501809145019091D9
:1015000046010A97D0F3215030408FEF2F3F380724
:1015100081F708951BBC1ABC19BC18BC1092790045
:101520001092780010928700109286001092850029
:1015300010928400109283001092820008950E94FD
:101540008A0A0E944F082AEF30E00AC01092460132
:101550001092450180914501909146010A97D0F380
:10156000215030408FEF2F3F380781F780910501E0
:10157000909106019BBD8ABD24E630E00AC010921E
:1015800046011092450180914501909146010A97CC
:10159000D0F3215030408FEF2F3F380781F78091F3
:1015A00007019091080199BD88BD24E630E00AC08A
:1015B000109246011092450180914501909146019B
:1015C0000A97D0F3215030408FEF2F3F380781F733
:1015D0008091090190910A0190937900809378009D
:1015E00022E330E00AC0109246011092450180913A
:1015F0004501909146010A97D0F3215030408FEF7A
:101600002F3F380781F780910B0190910C01909347
:1016100087008093860022E330E00AC010924601E2
:101620001092450180914501909146010A97D0F3AF
:10163000215030408FEF2F3F380781F780910D0107
:1016400090910E01909385008093840022E330E016
:101650000AC0109246011092450180914501909177
:1016600046010A97D0F3215030408FEF2F3F3807C3
:1016700081F780910F0190911001909383008093E6
:10168000820022E330E00AC0109246011092450128
:1016900080914501909146010A97D0F32150304046
:1016A0008FEF2F3F380781F708950E948A0A0E9422
:1016B0004F082AEF30E00AC010924601109245010F
:1016C00080914501909146010A97D0F32150304016
:1016D0008FEF2F3F380781F780E496E09BBD8ABDEE
:1016E00024E630E00AC01092460110924501809134
:1016F0004501909146010A97D0F3215030408FEF79
:101700002F3F380781F78CED95E099BD88BD24E621
:1017100030E00AC0109246011092450180914501C7
:10172000909146010A97D0F3215030408FEF2F3F20
:10173000380781F78CED95E09093790080937800DD
:1017400022E330E00AC010924601109245018091D8
:101750004501909146010A97D0F3215030408FEF18
:101760002F3F380781F78CED95E0909387008093A9
:10177000860022E330E00AC0109246011092450133
:1017800080914501909146010A97D0F32150304055
:101790008FEF2F3F380781F78CED95E09093850010
:1017A0008093840022E330E00AC010924601109238
:1017B000450180914501909146010A97D0F321504F
:1017C00030408FEF2F3F380781F78CED95E09093F5
:1017D00083008093820022E330E00AC01092460129
:1017E0001092450180914501909146010A97D0F3EE
:1017F000215030408FEF2F3F380781F70895833015
:1018000009F1843030F4813059F0823009F045C05C
:1018100010C0853069F1853000F18630F1F533C0B4
:101820008091050190910601860F971F9BBD8ABD8F
:1018300008958091070190910801860F971F99BD27
:1018400088BD08958091090190910A01860F971F24
:101850009093790080937800089580910B01909186
:101860000C01860F971F9093870080938600089540
:1018700080910D0190910E01860F971F9093850026
:1018800080938400089580910F0190911001860F3C
:10189000971F90938300809382000895CF92DF92E8
:1018A000EF92FF920F931F93CF93DF93F82E8B014C
:1018B0006A0123E0821711F1281738F081E0F81649
:1018C00079F022E0F21649F412C085E0F81641F1F1
:1018D000F816E8F026E0F21661F1CCE8DAE033C061
:1018E000CAB5DBB580910501909106012AC0C8B543
:1018F000D9B5809107019091080123C0C09178006B
:10190000D09179008091090190910A011AC0C0918B
:101910008600D091870080910B0190910C0111C03D
:10192000C0918400D091850080910D0190910E01AD
:1019300008C0C0918200D091830080910F019091E6
:101940001001C81BD90B0C171D070CF05BC081E000
:10195000F81611F0EE2408C0EE24CE01801B910B86
:10196000C29714F0EE24E39421978F2DBE010E94BC
:10197000FF0B109244011092430180913401806862
:101980008093340102C00E943106809143019091FE
:1019900044018C159D05B8F3809134018F778093B5
:1019A00034010C171D0704F3E801EE2029F54BC0A4
:1019B0002196CE018D509E4F875E934020F48F2D4F
:1019C000BE010E94FF0B10924401109243018091CE
:1019D000340180688093340102C00E9431068091F6
:1019E0004301909144018C159D05B8F38091340119
:1019F0008F778093340102C00F5C1F4F0C171D07B7
:101A0000BCF621C0C017D107F4F421968F2DBE017A
:101A10000E94FF0B10924401109243018091340107
:101A200080688093340102C00E9431068091430196
:101A3000909144018C159D05B8F3809134018F7706
:101A400080933401DFCFDF91CF911F910F91FF90F1
:101A5000EF90DF90CF900895A798AF9A00009F9BDA
:101A600003C010920201089581E08093020108955D
:101A7000F8940E942C0D80910201882309F479C00A
:101A80001BBA8FE088BB15BA12BA13B81092620065
:101A9000109265008ABB80EF87BB8CEF84BB8BE024
:101AA00081BB8AEF82B9109261008FE1809364005C
:101AB0000E945D0880EC87B984E286B910928E009E
:101AC0008AE483BF8FEF81BF8AE085BD8CEC83BD44
:101AD00038EA3FBD22E12EBD80E29EE497BD86BD7F
:101AE0001DBC1CBC30938B0020938A009093810016
:101AF00080938000109289001092880010929800C4
:101B000089E18093990010929B0086E080939D006C
:101B100088E980939A0087B7806887BF78940E948D
:101B20000A0980916500816080936500809165005D
:101B30008D7F8093650028EE33E00AC01092460145
:101B40001092450180914501909146010A97D0F38A
:101B5000215030408FEF2F3F380781F7809165008B
:101B60008E7F809365008091650082608093650020
:101B700008951BBA8FE088BB15BA12BA13B8109239
:101B800062001092650080EF8ABB87BB8CEF84BB3C
:101B90008BE081BB8AEF82B9109261008FE1809364
:101BA000640084E594E00E94210E85E194E00E94A7
:101BB000210E8DED93E00E94210E8DE993E00E94AD
:101BC000210E20ED37E049E951E005C0CA01019737
:101BD000F1F72150304021153105C1F780916500A2
:101BE000816080936500809165008D7F80936500A2
:101BF00088EE93E0FA013197F1F70197D9F78091D8
:101C000065008E7F80936500809165008D7F809355
:101C1000650020ED37E0DACF982F80919B0085FF9B
:101C2000FCCF90939C000895FC0107C080919B001D
:101C300085FFFCCF319690939C0090819923B1F75A
:101C400008959C0106C080919B0085FFFCCF909376
:101C50009C00F9012F5F3F4F94919923A1F70895BC
:101C6000FC01E40FF11D08C080919B0085FFFCCFB3
:101C7000319690939C0061509081992311F06623D6
:101C800099F708951F920F920FB60F9211248F9318
:101C90009F93EF93FF93DF93CF930F92CDB7DEB770
:101CA00080919C00898380914801882391F49091D0
:101CB0004A01E92FF0E08981E55BFE4F80839F5F59
:101CC00090934A0180914901981718F082E080931F
:101CD00048010F90CF91DF91FF91EF919F918F91EC
:101CE0000F900FBE0F901F90189510924A0180938D
:101CF0004901109248010895809148018823E1F339
:101D00000895AC0120E00AC0E22FF0E0DF01A55BFE
:101D1000BE4F8C91E40FF51F80832F5F80914901A6
:101D2000281790F381E080934801089510924901AB
:101D300081E080934801089510924A0180934901FF
:101D400010924801809148018823E1F390E00AC095
:101D5000E92FF0E0DF01A55BBE4F8C91E60FF71F86
:101D600080839F5F80914901981790F381E0809371
:101D7000480108950F931F93DF93CF93CDB7DEB73C
:101D800061970FB6F894DEBF0FBECDBF462F8E0110
:101D90000F5F1F4FB80150E00E943D0FC8010E9425
:101DA000140E61960FB6F894DEBF0FBECDBFCF9173
:101DB000DF911F910F910895FF920F931F93DF936F
:101DC000CF93CDB7DEB761970FB6F894DEBF0FBEE5
:101DD000CDBF262FF42E8E010F5F1F4FB801422F6B
:101DE00050E00E943D0FF80101900020E9F7319783
:101DF000E01BF10B4F2D4E1B14167CF490E3415069
:101E000080919B0085FFFCCF90939C004423B9F701
:101E1000CE0101960E94140E05C04195C8016F2D98
:101E20000E94300E61960FB6F894DEBF0FBECDBF94
:101E3000CF91DF911F910F91FF900895629FD00184
:101E4000739FF001829FE00DF11D649FE00DF11D75
:101E5000929FF00D839FF00D749FF00D659FF00D24
:101E60009927729FB00DE11DF91F639FB00DE11D11
:101E7000F91FBD01CF0111240895FB019F01E894D2
:101E80004230C4F04532B4F44A3029F497FB1EF4D2
:101E9000909581959F4F642F77270E946E0F805DEC
:101EA0008A330CF0895D8193CB010097A1F716F47A
:101EB0005DE251931082C9010C945E0FDC01FC01BC
:101EC000672F71917723E1F7329704C07C916D936E
:101ED00070836291AE17BF07C8F30895AA1BBB1B9E
:101EE00051E107C0AA1FBB1FA617B70710F0A61B1A
:101EF000B70B881F991F5A95A9F780959095BC013B
:081F0000CD010895F894FFCF14
:021F0800FF00D8
:00000001FF
